{"contracts/EthiopianMicrofinanceSimple.sol":{"EthiopianMicrofinanceSimple":{"abi":[{"inputs":[],"stateMutability":"nonpayable","type":"constructor"},{"anonymous":false,"inputs":[{"indexed":true,"internalType":"address","name":"user","type":"address"},{"indexed":false,"internalType":"uint256","name":"oldScore","type":"uint256"},{"indexed":false,"internalType":"uint256","name":"newScore","type":"uint256"}],"name":"CreditScoreUpdated","type":"event"},{"anonymous":false,"inputs":[{"indexed":true,"internalType":"address","name":"user","type":"address"},{"indexed":false,"internalType":"uint256","name":"amount","type":"uint256"},{"indexed":false,"internalType":"uint256","name":"timestamp","type":"uint256"}],"name":"Deposited","type":"event"},{"anonymous":false,"inputs":[{"indexed":true,"internalType":"uint256","name":"loanId","type":"uint256"},{"indexed":false,"internalType":"uint256","name":"startTime","type":"uint256"}],"name":"LoanActive","type":"event"},{"anonymous":false,"inputs":[{"indexed":true,"internalType":"uint256","name":"loanId","type":"uint256"},{"indexed":false,"internalType":"uint256","name":"amount","type":"uint256"}],"name":"LoanApproved","type":"event"},{"anonymous":false,"inputs":[{"indexed":true,"internalType":"uint256","name":"loanId","type":"uint256"},{"indexed":false,"internalType":"uint256","name":"totalRepaid","type":"uint256"}],"name":"LoanCompleted","type":"event"},{"anonymous":false,"inputs":[{"indexed":true,"internalType":"uint256","name":"loanId","type":"uint256"}],"name":"LoanDefaulted","type":"event"},{"anonymous":false,"inputs":[{"indexed":true,"internalType":"uint256","name":"loanId","type":"uint256"},{"indexed":true,"internalType":"address","name":"borrower","type":"address"},{"indexed":false,"internalType":"uint256","name":"amount","type":"uint256"},{"indexed":false,"internalType":"string","name":"purpose","type":"string"}],"name":"LoanRequested","type":"event"},{"anonymous":false,"inputs":[{"indexed":false,"internalType":"uint256","name":"totalBalance","type":"uint256"},{"indexed":false,"internalType":"uint256","name":"activeLoans","type":"uint256"},{"indexed":false,"internalType":"uint256","name":"timestamp","type":"uint256"}],"name":"PoolStatsUpdated","type":"event"},{"anonymous":false,"inputs":[{"indexed":true,"internalType":"uint256","name":"loanId","type":"uint256"},{"indexed":true,"internalType":"address","name":"borrower","type":"address"},{"indexed":false,"internalType":"uint256","name":"amount","type":"uint256"}],"name":"RepaymentMade","type":"event"},{"anonymous":false,"inputs":[{"indexed":true,"internalType":"address","name":"user","type":"address"},{"indexed":false,"internalType":"uint256","name":"timestamp","type":"uint256"}],"name":"UserRegistered","type":"event"},{"anonymous":false,"inputs":[{"indexed":true,"internalType":"address","name":"user","type":"address"},{"indexed":false,"internalType":"uint256","name":"amount","type":"uint256"},{"indexed":false,"internalType":"uint256","name":"timestamp","type":"uint256"}],"name":"Withdrawn","type":"event"},{"stateMutability":"payable","type":"fallback"},{"inputs":[],"name":"BASE_INTEREST_RATE","outputs":[{"internalType":"uint256","name":"","type":"uint256"}],"stateMutability":"view","type":"function"},{"inputs":[],"name":"GRACE_PERIOD","outputs":[{"internalType":"uint256","name":"","type":"uint256"}],"stateMutability":"view","type":"function"},{"inputs":[],"name":"INITIAL_CREDIT_SCORE","outputs":[{"internalType":"uint256","name":"","type":"uint256"}],"stateMutability":"view","type":"function"},{"inputs":[],"name":"MAX_ACTIVE_LOANS_PER_USER","outputs":[{"internalType":"uint256","name":"","type":"uint256"}],"stateMutability":"view","type":"function"},{"inputs":[],"name":"MAX_CREDIT_SCORE","outputs":[{"internalType":"uint256","name":"","type":"uint256"}],"stateMutability":"view","type":"function"},{"inputs":[],"name":"MAX_DEPOSIT","outputs":[{"internalType":"uint256","name":"","type":"uint256"}],"stateMutability":"view","type":"function"},{"inputs":[],"name":"MAX_LOAN","outputs":[{"internalType":"uint256","name":"","type":"uint256"}],"stateMutability":"view","type":"function"},{"inputs":[],"name":"MIN_DEPOSIT","outputs":[{"internalType":"uint256","name":"","type":"uint256"}],"stateMutability":"view","type":"function"},{"inputs":[],"name":"MIN_LOAN","outputs":[{"internalType":"uint256","name":"","type":"uint256"}],"stateMutability":"view","type":"function"},{"inputs":[{"internalType":"uint256","name":"loanId","type":"uint256"}],"name":"approveLoan","outputs":[],"stateMutability":"nonpayable","type":"function"},{"inputs":[{"internalType":"uint256","name":"loanId","type":"uint256"}],"name":"checkDefault","outputs":[],"stateMutability":"nonpayable","type":"function"},{"inputs":[],"name":"deposit","outputs":[],"stateMutability":"payable","type":"function"},{"inputs":[],"name":"getAvailableLiquidity","outputs":[{"internalType":"uint256","name":"","type":"uint256"}],"stateMutability":"view","type":"function"},{"inputs":[{"internalType":"uint256","name":"loanId","type":"uint256"}],"name":"getLoanDetails","outputs":[{"internalType":"address","name":"borrower","type":"address"},{"internalType":"uint256","name":"amount","type":"uint256"},{"internalType":"uint256","name":"interestRate","type":"uint256"},{"internalType":"uint256","name":"duration","type":"uint256"},{"internalType":"uint256","name":"startTime","type":"uint256"},{"internalType":"uint256","name":"endTime","type":"uint256"},{"internalType":"uint256","name":"amountRepaid","type":"uint256"},{"internalType":"uint256","name":"totalOwed","type":"uint256"},{"internalType":"enum EthiopianMicrofinanceSimple.LoanStatus","name":"status","type":"uint8"},{"internalType":"string","name":"purpose","type":"string"},{"internalType":"uint256","name":"created","type":"uint256"}],"stateMutability":"view","type":"function"},{"inputs":[{"internalType":"address","name":"user","type":"address"}],"name":"getMaxLoanAmount","outputs":[{"internalType":"uint256","name":"","type":"uint256"}],"stateMutability":"view","type":"function"},{"inputs":[],"name":"getSystemStats","outputs":[{"internalType":"uint256","name":"totalBalance","type":"uint256"},{"internalType":"uint256","name":"activeLoans","type":"uint256"},{"internalType":"uint256","name":"totalRepaid","type":"uint256"},{"internalType":"uint256","name":"totalUsers","type":"uint256"}],"stateMutability":"view","type":"function"},{"inputs":[{"internalType":"address","name":"user","type":"address"}],"name":"getUserLoans","outputs":[{"internalType":"uint256[]","name":"","type":"uint256[]"}],"stateMutability":"view","type":"function"},{"inputs":[{"internalType":"address","name":"user","type":"address"}],"name":"getUserStats","outputs":[{"internalType":"uint256","name":"creditScore","type":"uint256"},{"internalType":"uint256","name":"totalBorrowed","type":"uint256"},{"internalType":"uint256","name":"totalRepaid","type":"uint256"},{"internalType":"uint256","name":"activeLoans","type":"uint256"},{"internalType":"uint256","name":"completedLoans","type":"uint256"},{"internalType":"uint256","name":"defaultedLoans","type":"uint256"},{"internalType":"uint256","name":"depositBalance","type":"uint256"},{"internalType":"uint256","name":"maxLoanAmount","type":"uint256"}],"stateMutability":"view","type":"function"},{"inputs":[{"internalType":"uint256","name":"","type":"uint256"}],"name":"loans","outputs":[{"internalType":"uint256","name":"id","type":"uint256"},{"internalType":"address","name":"borrower","type":"address"},{"internalType":"uint256","name":"amount","type":"uint256"},{"internalType":"uint256","name":"interestRate","type":"uint256"},{"internalType":"uint256","name":"duration","type":"uint256"},{"internalType":"uint256","name":"startTime","type":"uint256"},{"internalType":"uint256","name":"endTime","type":"uint256"},{"internalType":"uint256","name":"amountRepaid","type":"uint256"},{"internalType":"uint256","name":"totalOwed","type":"uint256"},{"internalType":"enum EthiopianMicrofinanceSimple.LoanStatus","name":"status","type":"uint8"},{"internalType":"string","name":"purpose","type":"string"},{"internalType":"uint256","name":"created","type":"uint256"}],"stateMutability":"view","type":"function"},{"inputs":[],"name":"nextLoanId","outputs":[{"internalType":"uint256","name":"","type":"uint256"}],"stateMutability":"view","type":"function"},{"inputs":[],"name":"owner","outputs":[{"internalType":"address","name":"","type":"address"}],"stateMutability":"view","type":"function"},{"inputs":[],"name":"pause","outputs":[],"stateMutability":"nonpayable","type":"function"},{"inputs":[],"name":"paused","outputs":[{"internalType":"bool","name":"","type":"bool"}],"stateMutability":"view","type":"function"},{"inputs":[],"name":"register","outputs":[],"stateMutability":"nonpayable","type":"function"},{"inputs":[{"internalType":"uint256","name":"loanId","type":"uint256"}],"name":"repayLoan","outputs":[],"stateMutability":"payable","type":"function"},{"inputs":[{"internalType":"uint256","name":"amount","type":"uint256"},{"internalType":"uint256","name":"duration","type":"uint256"},{"internalType":"string","name":"purpose","type":"string"}],"name":"requestLoan","outputs":[{"internalType":"uint256","name":"","type":"uint256"}],"stateMutability":"nonpayable","type":"function"},{"inputs":[],"name":"totalActiveLoans","outputs":[{"internalType":"uint256","name":"","type":"uint256"}],"stateMutability":"view","type":"function"},{"inputs":[],"name":"totalPoolBalance","outputs":[{"internalType":"uint256","name":"","type":"uint256"}],"stateMutability":"view","type":"function"},{"inputs":[],"name":"totalRepaidAmount","outputs":[{"internalType":"uint256","name":"","type":"uint256"}],"stateMutability":"view","type":"function"},{"inputs":[],"name":"unpause","outputs":[],"stateMutability":"nonpayable","type":"function"},{"inputs":[{"internalType":"address","name":"","type":"address"}],"name":"userDeposits","outputs":[{"internalType":"uint256","name":"","type":"uint256"}],"stateMutability":"view","type":"function"},{"inputs":[{"internalType":"address","name":"","type":"address"},{"internalType":"uint256","name":"","type":"uint256"}],"name":"userLoans","outputs":[{"internalType":"uint256","name":"","type":"uint256"}],"stateMutability":"view","type":"function"},{"inputs":[{"internalType":"address","name":"","type":"address"}],"name":"users","outputs":[{"internalType":"uint256","name":"creditScore","type":"uint256"},{"internalType":"uint256","name":"totalBorrowed","type":"uint256"},{"internalType":"uint256","name":"totalRepaid","type":"uint256"},{"internalType":"uint256","name":"activeLoans","type":"uint256"},{"internalType":"uint256","name":"completedLoans","type":"uint256"},{"internalType":"uint256","name":"defaultedLoans","type":"uint256"},{"internalType":"bool","name":"isRegistered","type":"bool"},{"internalType":"uint256","name":"lastActivity","type":"uint256"}],"stateMutability":"view","type":"function"},{"inputs":[{"internalType":"uint256","name":"amount","type":"uint256"}],"name":"withdraw","outputs":[],"stateMutability":"nonpayable","type":"function"},{"stateMutability":"payable","type":"receive"}],"evm":{"bytecode":{"linkReferences":{},"object":"60803461010557600080546001600160a01b0319163317815561010082016001600160401b038111838210176100f157906007916040526101f48352602083018181526040840182815260608501838152608086019084825260a087019285845260c088019460018652604060e08a019742895233815260066020522098518955516001890155516002880155516003870155516004860155516005850155600684019051151560ff80198354169116179055519101556040514281527fe29d35093005f4d575e1003753426b57a7f64378ba73332eef9c6ccc2b8decd660203392a260405161207f908161010b8239f35b634e487b7160e01b82526041600452602482fd5b600080fdfe6080806040526004361015610028575b5036156100205761001e611fcb565b005b61001e611fcb565b60003560e01c90816302bf321f14611afd575080630ba36dcd14611ac35780630d8cb2ff14610ad35780631aa3a008146119825780632e1a7d4d146117fd5780633f4ba83a146117cb5780634e43603a146116ec5780635026d63e146111ef57806354203e09146116cf5780635c975abb146116ac578063617554321461168957806366877b8d146115185780636b7dba65146114f6578063759135a1146112c357806383e8cb4f146112a75780638456cb591461127257806387c5145914611254578063891369b2146112365780638da5cb5b1461120d5780639b745aec146111ef578063a87430ba14611163578063aadc1ac114610f3b578063ab7b1c8914610b21578063ad73f38e14610af6578063c1a287e214610ad8578063c293195b14610ad3578063d0e30db01461093c578063d1ce59a714610906578063d3602dc61461033f578063d8bad5bd146102e7578063dc63af41146102c9578063dd5967c3146102a5578063e1e158a5146102835763e1ec3c68146101ab573861000f565b3461027e57602036600319011261027e5760043560005260076020526020604060002080549061027360018060a01b0360018301541691610261600282015460038301546004840154600585015460068601549060078701549260088801549460ff60098a01541696600b610222600a8c01611cf1565b9a01549b6040519e8f9e8f908152015260408d015260608c015260808b015260a08a015260c089015260e0880152610100870152610120860190611be0565b61018080610140860152840190611bed565b906101608301520390f35b600080fd5b3461027e57600036600319011261027e57602060405166038d7ea4c680008152f35b3461027e57600036600319011261027e57602060405168056bc75e2d631000008152f35b3461027e57600036600319011261027e576020600254604051908152f35b3461027e57604036600319011261027e57610300611bad565b6001600160a01b031660009081526008602052604090208054602435919082101561027e5760209161033191611c89565b90546040519160031b1c8152f35b3461027e57606036600319011261027e5760443567ffffffffffffffff811161027e573660238201121561027e57806004013567ffffffffffffffff81116106e65760405191610399601f8301601f191660200184611c67565b818352366024838301011161027e578160009260246020930183860137830101526103c960ff6005541615611d97565b6001600a546103db60ff821615611dd8565b60ff191617600a5533600052600660205261040060ff60066040600020015416611e15565b6611c37937e080006004351015806108f2575b156108b75762278d006024351015806108a8575b1561087057336000526006602052600260036040600020015410156108335761044f33611f55565b600435116107ee576104676001546004351115611e64565b60045460001981146107d857600181016004556101f46004350260043581046101f4146004351517156107d857806101f460243560043502020460243514901517156107d8576104ca64496cebb8006101f4602435600435020204600435611e57565b604051906104d782611c4a565b82825233602083015260043560408301526101f460608301526024356080830152600060a0830152600060c0830152600060e083015261010082015260006101208201528261014082015242610160820152816000526007602052604060002090805182556001820160018060a01b036020830151166bffffffffffffffffffffffff60a01b82541617905560408101516002830155606081015160038301556080810151600483015560a0810151600583015560c0810151600683015560e0810151600783015561010081015160088301556009820161012082015160068110156107c25760ff8019835416911617905561014081015180519067ffffffffffffffff82116106e6576105ee600a850154611cb7565b601f811161077b575b50602090601f8311600114610707579180600b9492610160946000926106fc575b50508160011b916000199060031b1c191617600a8501555b0151910155336000526008602052604060002091825492680100000000000000008410156106e6578361066a916001602096018155611c89565b81549060031b9084821b91600019901b1916179055336000526006835242600760406000200155817ffbba0893dd1f941cb4a7bb791aed3ce1ad2a008c20ef3254b2a2cf7752b199f16040516004358152604086820152806106d133956040830190611bed565b0390a360ff19600a5416600a55604051908152f35b634e487b7160e01b600052604160045260246000fd5b015190508880610618565b90601f19831691600a860160005260206000209260005b818110610763575092600192859261016096600b98961061074a575b505050811b01600a850155610630565b015160001960f88460031b161c1916905588808061073a565b9293602060018192878601518155019501930161071e565b600a85016000526020600020601f840160051c8101602085106107bb575b601f830160051c820181106107af5750506105f7565b60008155600101610799565b5080610799565b634e487b7160e01b600052602160045260246000fd5b634e487b7160e01b600052601160045260246000fd5b60405162461bcd60e51b815260206004820152601b60248201527f416d6f756e74206578636565647320637265646974206c696d697400000000006044820152606490fd5b60405162461bcd60e51b8152602060048201526015602482015274546f6f206d616e7920616374697665206c6f616e7360581b6044820152606490fd5b60405162461bcd60e51b815260206004820152601060248201526f24b73b30b634b210323ab930ba34b7b760811b6044820152606490fd5b5062ed4e006024351115610427565b60405162461bcd60e51b8152602060048201526013602482015272125b9d985b1a59081b1bd85b88185b5bdd5b9d606a1b6044820152606490fd5b50678ac7230489e800006004351115610413565b3461027e57600036600319011261027e576080600154600254600354906040519283526020830152604082015260006060820152f35b600036600319011261027e5761095760ff6005541615611d97565b600a5461096760ff821615611dd8565b600160ff1980921617600a553360005260206006815261099160ff60066040600020015416611e15565b66038d7ea4c680003410610a975768056bc75e2d631000003411610a5b57336000526009815260406000206109c7348254611e57565b90556109d534600154611e57565b6001553360005260068152426007604060002001556040519034825242908201527f73a19dd210f1a7f902193214c0ee91dd35ee5b4d920cba8d519eca65a7b488ca60403392a2600154600254604080519283526020830191909152429082015260008051602061202a8339815191529080606081015b0390a1600a5416600a55600080f35b6064906040519062461bcd60e51b82526004820152601560248201527410589bdd99481b585e1a5b5d5b4819195c1bdcda5d605a1b6044820152fd5b6064906040519062461bcd60e51b82526004820152601560248201527410995b1bddc81b5a5b9a5b5d5b4819195c1bdcda5d605a1b6044820152fd5b611bc3565b3461027e57600036600319011261027e57602060405162093a808152f35b3461027e57602036600319011261027e576020610b19610b14611bad565b611f55565b604051908152f35b60208060031936011261027e57600435610b4060ff6005541615611d97565b600a91825491610b5360ff841615611dd8565b6001908160ff198095161785558060005260079283815260ff6009604060002001541693600694858110156107c25784148015610f17575b610b9490611f13565b6000838152818352604090208401546001600160a01b039081163303610ede573415610ea557836000528183526040600020600881019081549084810191610bde83548092611eb0565b3411610e605790610bf26009923490611e57565b8355610c0034600354611e57565b600355610c0e348a54611e57565b8955336000528987526002604060002001610c2a348254611e57565b90553360005289875242866040600020015501805460ff81168a8110156107c257898c9114610e52575b505050604051348152867f8138c96768bd65e56a78ccd77b0836274962d9e184373c9da955793ac8e4ad22873393a35490541115610ccf575b878760008051602061202a8339815191528754600254610cc56040519283924291846040919493926060820195825260208201520152565b0390a18154169055005b83600052818352604060002090600982016003898254161790558582015416958660005280845260036040600020018054600019918282019182116107d857558760005281855260046040600020018054908882018092116107d857556002549081019081116107d85760025586600052835260406000209586549687603290600483015480158015610e06575b505060008051602061202a833981519152997f03d7f456a773b484d2552719bd744b62049588737d6a02948eba3dcae1b0d77f9796959493610dc27f4f43648f37bc26ee5bc39c60c1c1e2481a9fb9feb9f86419c91b4645585ff3bc94604094611e57565b6103e8808211610dfe575b5060648110610df6575b809155825191825287820152a20154604051908152a284808080610c8d565b506064610dd7565b90508f610dcd565b8d80839a999897969a029283041417156107d85782018092116107d8579495939492939192897f03d7f456a773b484d2552719bd744b62049588737d6a02948eba3dcae1b0d77f610d5d565b1660021790558a808a610c54565b60405162461bcd60e51b815260048101889052601760248201527f5061796d656e7420657863656564732062616c616e63650000000000000000006044820152606490fd5b60405162461bcd60e51b8152600481018490526011602482015270139bc81c185e5b595b9d08185b5bdd5b9d607a1b6044820152606490fd5b60405162461bcd60e51b81526004810184905260116024820152702737ba103637b0b7103137b93937bbb2b960791b6044820152606490fd5b508260005280825260ff60096040600020015416858110156107c257600214610b8b565b3461027e5760208060031936011261027e57600054600435916001600160a01b0391610f6a9083163314611ebd565b600a5492610f7b60ff851615611dd8565b6001918260ff1980961617600a55816000526007815260ff6009604060002001541660068110156107c257610fb09015611f13565b825482600052600782526002604060002001541161112657816000526007815260406000209060098201848782541617905560026005830195428755610ffa600485015442611e57565b600685015585840154169201918254816000526006835261102386604060002001918254611e57565b9055806000526006825260036040600020018054908682018092116107d857558060005260068252426007604060002001556002548581018091116107d8576000808093819360025561107887548a54611eb0565b895586549082821561111d575bf1156111115760008051602061202a83398151915294837e25a2d6ca1b3da40a46ecc2c7ecbddb416fe7180003a0155b7e7d782d895f21837fbdb65d47867316d2084743d0502e9c6653d9ac7d35cc591028f1f32fbe0028e69554604051908152a254604051908152a25460025460408051928352602083019190915242908201528060608101610a4c565b6040513d6000823e3d90fd5b506108fc611085565b6064906040519062461bcd60e51b825260048201526016602482015275496e73756666696369656e74206c697175696469747960501b6044820152fd5b3461027e57602036600319011261027e576001600160a01b03611184611bad565b166000526006602052610100604060002080549060018101549060028101546003820154600483015490600584015492600760ff60068701541695015495604051978852602088015260408701526060860152608085015260a0840152151560c083015260e0820152f35b3461027e57600036600319011261027e576020600154604051908152f35b3461027e57600036600319011261027e576000546040516001600160a01b039091168152602090f35b3461027e57600036600319011261027e576020600354604051908152f35b3461027e57600036600319011261027e576020600454604051908152f35b3461027e57600036600319011261027e5761129860018060a01b03600054163314611ebd565b6005805460ff19166001179055005b3461027e57600036600319011261027e57602060405160028152f35b3461027e5760208060031936011261027e57600435908160005260079081815260ff6009604060002001541691600692838110156107c25760011480156114d2575b61130e90611f13565b83600052808252826040600020015462093a8081018091116107d85742111561149557836000528082526040600020600882820154910154111561145a576000848152908252604080822060098101805460ff19166004179055600101546001600160a01b031680835284845291206003018054919391600019918282019182116107d85755836000528183526005604060002001805490600182018092116107d857556002549081019081116107d857600255826000528152604060002080548060631981019081116107d8577f4f43648f37bc26ee5bc39c60c1c1e2481a9fb9feb9f86419c91b4645585ff3bc936040936103e8808411611452575b5060648310611449575b8290558351928352820152a27f0789b7097e8066538cfaa1132488b132e14ba5f0c938c8b7aaf8cf40356aab0b600080a2005b60649250611416565b92508861140c565b60405162461bcd60e51b8152600481018390526013602482015272131bd85b88185b1c9958591e481c995c185a59606a1b6044820152606490fd5b60405162461bcd60e51b815260048101839052601560248201527423b930b1b2903832b934b7b2103737ba1037bb32b960591b6044820152606490fd5b508360005280825260ff60096040600020015416838110156107c257600214611305565b3461027e57600036600319011261027e5760206040516611c37937e080008152f35b3461027e57602036600319011261027e57600435600052600760205260406000206040519061154682611c4a565b8054825260018101546001600160a01b03166020830152600281015460408301526003810154606083015260048101546080830152600581015460a083015260068082015460c0840152600782015460e08401526008820154610100840152600982015460ff1691908210156107c257600b916101208401526115cb600a8201611cf1565b610140840152015461016082015260018060a01b0360208201511660408201519160608101519060808101519060a08101519160c082015160e0830151610100840151906101208501519260068410156107c25761167e9661166a95610160610140890151980151996040519c8d9c8d5260208d015260408c015260608b015260808a015260a089015260c088015260e0870152610100860190611be0565b610160610120850152610160840190611bed565b906101408301520390f35b3461027e57600036600319011261027e576020604051678ac7230489e800008152f35b3461027e57600036600319011261027e57602060ff600554166040519015158152f35b3461027e57600036600319011261027e5760206040516103e88152f35b3461027e57602036600319011261027e57610100611708611bad565b6001600160a01b038116600081815260066020526040908190209051929061172f84611c2d565b805493848152600182015493846020830152600283015480604084015260038401549182606085015260048501549384608082015260e060076005880154978860a085015260ff600682015416151560c08501520154910152600052600960205261179f60406000205495611f55565b95604051978852602088015260408701526060860152608085015260a084015260c083015260e0820152f35b3461027e57600036600319011261027e576117f160018060a01b03600054163314611ebd565b6005805460ff19169055005b3461027e5760208060031936011261027e5760043561182160ff6005541615611d97565b600a549161183260ff841615611dd8565b600160ff1980941617600a55336000526006815261185a60ff60066040600020015416611e15565b3360005260098152816040600020541061193e5761187c600154831115611e64565b33600052600981526040600020611894838254611eb0565b90556118a282600154611eb0565b6001553360005260068152426007604060002001558160008115611935575b600080809381933390f1156111115760405191825242908201527f92ccf450a286a957af52509bc1c9939d1a6a481783e142e41e2499f0bb66ebc660403392a2600154600254604080519283526020830191909152429082015260008051602061202a833981519152908060608101610a4c565b506108fc6118c1565b6064906040519062461bcd60e51b82526004820152601c60248201527f496e73756666696369656e74206465706f7369742062616c616e6365000000006044820152fd5b3461027e57600036600319011261027e576119a260ff6005541615611d97565b33600052600660205260ff60066040600020015416611a7e576040516119c781611c2d565b6101f481526007602082016000815260408301600081526060840160008152608085016000815260a08601916000835260c08701936001855260e0880195428752336000526006602052604060002098518955516001890155516002880155516003870155516004860155516005850155600684019051151560ff80198354169116179055519101556040514281527fe29d35093005f4d575e1003753426b57a7f64378ba73332eef9c6ccc2b8decd660203392a2005b60405162461bcd60e51b815260206004820152601760248201527f5573657220616c726561647920726567697374657265640000000000000000006044820152606490fd5b3461027e57602036600319011261027e576001600160a01b03611ae4611bad565b1660005260096020526020604060002054604051908152f35b3461027e576020908160031936011261027e576001600160a01b03611b20611bad565b166000526008825260406000208054808352838301908192600052846000209060005b86828210611b99578686611b5982880383611c67565b604051928392818401908285525180915260408401929160005b828110611b8257505050500390f35b835185528695509381019392810192600101611b73565b835485529093019260019283019201611b43565b600435906001600160a01b038216820361027e57565b3461027e57600036600319011261027e5760206040516101f48152f35b9060068210156107c25752565b919082519283825260005b848110611c19575050826000602080949584010152601f8019910116010190565b602081830181015184830182015201611bf8565b610100810190811067ffffffffffffffff8211176106e657604052565b610180810190811067ffffffffffffffff8211176106e657604052565b90601f8019910116810190811067ffffffffffffffff8211176106e657604052565b8054821015611ca15760005260206000200190600090565b634e487b7160e01b600052603260045260246000fd5b90600182811c92168015611ce7575b6020831014611cd157565b634e487b7160e01b600052602260045260246000fd5b91607f1691611cc6565b9060405191826000825492611d0584611cb7565b908184526001948581169081600014611d745750600114611d31575b5050611d2f92500383611c67565b565b9093915060005260209081600020936000915b818310611d5c575050611d2f93508201013880611d21565b85548884018501529485019487945091830191611d44565b915050611d2f94506020925060ff191682840152151560051b8201013880611d21565b15611d9e57565b60405162461bcd60e51b815260206004820152601260248201527110dbdb9d1c9858dd081a5cc81c185d5cd95960721b6044820152606490fd5b15611ddf57565b60405162461bcd60e51b815260206004820152600e60248201526d1499595b9d1c985b9d0818d85b1b60921b6044820152606490fd5b15611e1c57565b60405162461bcd60e51b8152602060048201526013602482015272155cd95c881b9bdd081c9959da5cdd195c9959606a1b6044820152606490fd5b919082018092116107d857565b15611e6b57565b60405162461bcd60e51b815260206004820152601b60248201527f496e73756666696369656e7420706f6f6c206c697175696469747900000000006044820152606490fd5b919082039182116107d857565b15611ec457565b60405162461bcd60e51b815260206004820152602160248201527f4f6e6c79206f776e65722063616e2063616c6c20746869732066756e6374696f6044820152603760f91b6064820152608490fd5b15611f1a57565b60405162461bcd60e51b8152602060048201526013602482015272496e76616c6964206c6f616e2073746174757360681b6044820152606490fd5b6001600160a01b03166000908152600660205260409020546103208110611f835750678ac7230489e8000090565b6102588110611f99575067016345785d8a000090565b6101908110611fae575066b1a2bc2ec5000090565b60c811611fc0576658d15e1762800090565b6611c37937e0800090565b3360005260096020526040600020611fe4348254611e57565b9055611ff234600154611e57565b6001556040513481524260208201527f73a19dd210f1a7f902193214c0ee91dd35ee5b4d920cba8d519eca65a7b488ca60403392a256fec10000f0ea031c3e8c34f842d93756112f8fa737a3140e4921ed932067f42d6aa2646970667358221220577e0ec8d44d38ac41e6f6a4417e2d0f2393f42e1095643eed092ee325f6c0b664736f6c63430008130033","opcodes":"PUSH1 0x80 CALLVALUE PUSH2 0x105 JUMPI PUSH1 0x0 DUP1 SLOAD PUSH1 0x1 PUSH1 0x1 PUSH1 0xA0 SHL SUB NOT AND CALLER OR DUP2 SSTORE PUSH2 0x100 DUP3 ADD PUSH1 0x1 PUSH1 0x1 PUSH1 0x40 SHL SUB DUP2 GT DUP4 DUP3 LT OR PUSH2 0xF1 JUMPI SWAP1 PUSH1 0x7 SWAP2 PUSH1 0x40 MSTORE PUSH2 0x1F4 DUP4 MSTORE PUSH1 0x20 DUP4 ADD DUP2 DUP2 MSTORE PUSH1 0x40 DUP5 ADD DUP3 DUP2 MSTORE PUSH1 0x60 DUP6 ADD DUP4 DUP2 MSTORE PUSH1 0x80 DUP7 ADD SWAP1 DUP5 DUP3 MSTORE PUSH1 0xA0 DUP8 ADD SWAP3 DUP6 DUP5 MSTORE PUSH1 0xC0 DUP9 ADD SWAP5 PUSH1 0x1 DUP7 MSTORE PUSH1 0x40 PUSH1 0xE0 DUP11 ADD SWAP8 TIMESTAMP DUP10 MSTORE CALLER DUP2 MSTORE PUSH1 0x6 PUSH1 0x20 MSTORE KECCAK256 SWAP9 MLOAD DUP10 SSTORE MLOAD PUSH1 0x1 DUP10 ADD SSTORE MLOAD PUSH1 0x2 DUP9 ADD SSTORE MLOAD PUSH1 0x3 DUP8 ADD SSTORE MLOAD PUSH1 0x4 DUP7 ADD SSTORE MLOAD PUSH1 0x5 DUP6 ADD SSTORE PUSH1 0x6 DUP5 ADD SWAP1 MLOAD ISZERO ISZERO PUSH1 0xFF DUP1 NOT DUP4 SLOAD AND SWAP2 AND OR SWAP1 SSTORE MLOAD SWAP2 ADD SSTORE PUSH1 0x40 MLOAD TIMESTAMP DUP2 MSTORE PUSH32 0xE29D35093005F4D575E1003753426B57A7F64378BA73332EEF9C6CCC2B8DECD6 PUSH1 0x20 CALLER SWAP3 LOG2 PUSH1 0x40 MLOAD PUSH2 0x207F SWAP1 DUP2 PUSH2 0x10B DUP3 CODECOPY RETURN JUMPDEST PUSH4 0x4E487B71 PUSH1 0xE0 SHL DUP3 MSTORE PUSH1 0x41 PUSH1 0x4 MSTORE PUSH1 0x24 DUP3 REVERT JUMPDEST PUSH1 0x0 DUP1 REVERT INVALID PUSH1 0x80 DUP1 PUSH1 0x40 MSTORE PUSH1 0x4 CALLDATASIZE LT ISZERO PUSH2 0x28 JUMPI JUMPDEST POP CALLDATASIZE ISZERO PUSH2 0x20 JUMPI PUSH2 0x1E PUSH2 0x1FCB JUMP JUMPDEST STOP JUMPDEST PUSH2 0x1E PUSH2 0x1FCB JUMP JUMPDEST PUSH1 0x0 CALLDATALOAD PUSH1 0xE0 SHR SWAP1 DUP2 PUSH4 0x2BF321F EQ PUSH2 0x1AFD JUMPI POP DUP1 PUSH4 0xBA36DCD EQ PUSH2 0x1AC3 JUMPI DUP1 PUSH4 0xD8CB2FF EQ PUSH2 0xAD3 JUMPI DUP1 PUSH4 0x1AA3A008 EQ PUSH2 0x1982 JUMPI DUP1 PUSH4 0x2E1A7D4D EQ PUSH2 0x17FD JUMPI DUP1 PUSH4 0x3F4BA83A EQ PUSH2 0x17CB JUMPI DUP1 PUSH4 0x4E43603A EQ PUSH2 0x16EC JUMPI DUP1 PUSH4 0x5026D63E EQ PUSH2 0x11EF JUMPI DUP1 PUSH4 0x54203E09 EQ PUSH2 0x16CF JUMPI DUP1 PUSH4 0x5C975ABB EQ PUSH2 0x16AC JUMPI DUP1 PUSH4 0x61755432 EQ PUSH2 0x1689 JUMPI DUP1 PUSH4 0x66877B8D EQ PUSH2 0x1518 JUMPI DUP1 PUSH4 0x6B7DBA65 EQ PUSH2 0x14F6 JUMPI DUP1 PUSH4 0x759135A1 EQ PUSH2 0x12C3 JUMPI DUP1 PUSH4 0x83E8CB4F EQ PUSH2 0x12A7 JUMPI DUP1 PUSH4 0x8456CB59 EQ PUSH2 0x1272 JUMPI DUP1 PUSH4 0x87C51459 EQ PUSH2 0x1254 JUMPI DUP1 PUSH4 0x891369B2 EQ PUSH2 0x1236 JUMPI DUP1 PUSH4 0x8DA5CB5B EQ PUSH2 0x120D JUMPI DUP1 PUSH4 0x9B745AEC EQ PUSH2 0x11EF JUMPI DUP1 PUSH4 0xA87430BA EQ PUSH2 0x1163 JUMPI DUP1 PUSH4 0xAADC1AC1 EQ PUSH2 0xF3B JUMPI DUP1 PUSH4 0xAB7B1C89 EQ PUSH2 0xB21 JUMPI DUP1 PUSH4 0xAD73F38E EQ PUSH2 0xAF6 JUMPI DUP1 PUSH4 0xC1A287E2 EQ PUSH2 0xAD8 JUMPI DUP1 PUSH4 0xC293195B EQ PUSH2 0xAD3 JUMPI DUP1 PUSH4 0xD0E30DB0 EQ PUSH2 0x93C JUMPI DUP1 PUSH4 0xD1CE59A7 EQ PUSH2 0x906 JUMPI DUP1 PUSH4 0xD3602DC6 EQ PUSH2 0x33F JUMPI DUP1 PUSH4 0xD8BAD5BD EQ PUSH2 0x2E7 JUMPI DUP1 PUSH4 0xDC63AF41 EQ PUSH2 0x2C9 JUMPI DUP1 PUSH4 0xDD5967C3 EQ PUSH2 0x2A5 JUMPI DUP1 PUSH4 0xE1E158A5 EQ PUSH2 0x283 JUMPI PUSH4 0xE1EC3C68 EQ PUSH2 0x1AB JUMPI CODESIZE PUSH2 0xF JUMP JUMPDEST CALLVALUE PUSH2 0x27E JUMPI PUSH1 0x20 CALLDATASIZE PUSH1 0x3 NOT ADD SLT PUSH2 0x27E JUMPI PUSH1 0x4 CALLDATALOAD PUSH1 0x0 MSTORE PUSH1 0x7 PUSH1 0x20 MSTORE PUSH1 0x20 PUSH1 0x40 PUSH1 0x0 KECCAK256 DUP1 SLOAD SWAP1 PUSH2 0x273 PUSH1 0x1 DUP1 PUSH1 0xA0 SHL SUB PUSH1 0x1 DUP4 ADD SLOAD AND SWAP2 PUSH2 0x261 PUSH1 0x2 DUP3 ADD SLOAD PUSH1 0x3 DUP4 ADD SLOAD PUSH1 0x4 DUP5 ADD SLOAD PUSH1 0x5 DUP6 ADD SLOAD PUSH1 0x6 DUP7 ADD SLOAD SWAP1 PUSH1 0x7 DUP8 ADD SLOAD SWAP3 PUSH1 0x8 DUP9 ADD SLOAD SWAP5 PUSH1 0xFF PUSH1 0x9 DUP11 ADD SLOAD AND SWAP7 PUSH1 0xB PUSH2 0x222 PUSH1 0xA DUP13 ADD PUSH2 0x1CF1 JUMP JUMPDEST SWAP11 ADD SLOAD SWAP12 PUSH1 0x40 MLOAD SWAP15 DUP16 SWAP15 DUP16 SWAP1 DUP2 MSTORE ADD MSTORE PUSH1 0x40 DUP14 ADD MSTORE PUSH1 0x60 DUP13 ADD MSTORE PUSH1 0x80 DUP12 ADD MSTORE PUSH1 0xA0 DUP11 ADD MSTORE PUSH1 0xC0 DUP10 ADD MSTORE PUSH1 0xE0 DUP9 ADD MSTORE PUSH2 0x100 DUP8 ADD MSTORE PUSH2 0x120 DUP7 ADD SWAP1 PUSH2 0x1BE0 JUMP JUMPDEST PUSH2 0x180 DUP1 PUSH2 0x140 DUP7 ADD MSTORE DUP5 ADD SWAP1 PUSH2 0x1BED JUMP JUMPDEST SWAP1 PUSH2 0x160 DUP4 ADD MSTORE SUB SWAP1 RETURN JUMPDEST PUSH1 0x0 DUP1 REVERT JUMPDEST CALLVALUE PUSH2 0x27E JUMPI PUSH1 0x0 CALLDATASIZE PUSH1 0x3 NOT ADD SLT PUSH2 0x27E JUMPI PUSH1 0x20 PUSH1 0x40 MLOAD PUSH7 0x38D7EA4C68000 DUP2 MSTORE RETURN JUMPDEST CALLVALUE PUSH2 0x27E JUMPI PUSH1 0x0 CALLDATASIZE PUSH1 0x3 NOT ADD SLT PUSH2 0x27E JUMPI PUSH1 0x20 PUSH1 0x40 MLOAD PUSH9 0x56BC75E2D63100000 DUP2 MSTORE RETURN JUMPDEST CALLVALUE PUSH2 0x27E JUMPI PUSH1 0x0 CALLDATASIZE PUSH1 0x3 NOT ADD SLT PUSH2 0x27E JUMPI PUSH1 0x20 PUSH1 0x2 SLOAD PUSH1 0x40 MLOAD SWAP1 DUP2 MSTORE RETURN JUMPDEST CALLVALUE PUSH2 0x27E JUMPI PUSH1 0x40 CALLDATASIZE PUSH1 0x3 NOT ADD SLT PUSH2 0x27E JUMPI PUSH2 0x300 PUSH2 0x1BAD JUMP JUMPDEST PUSH1 0x1 PUSH1 0x1 PUSH1 0xA0 SHL SUB AND PUSH1 0x0 SWAP1 DUP2 MSTORE PUSH1 0x8 PUSH1 0x20 MSTORE PUSH1 0x40 SWAP1 KECCAK256 DUP1 SLOAD PUSH1 0x24 CALLDATALOAD SWAP2 SWAP1 DUP3 LT ISZERO PUSH2 0x27E JUMPI PUSH1 0x20 SWAP2 PUSH2 0x331 SWAP2 PUSH2 0x1C89 JUMP JUMPDEST SWAP1 SLOAD PUSH1 0x40 MLOAD SWAP2 PUSH1 0x3 SHL SHR DUP2 MSTORE RETURN JUMPDEST CALLVALUE PUSH2 0x27E JUMPI PUSH1 0x60 CALLDATASIZE PUSH1 0x3 NOT ADD SLT PUSH2 0x27E JUMPI PUSH1 0x44 CALLDATALOAD PUSH8 0xFFFFFFFFFFFFFFFF DUP2 GT PUSH2 0x27E JUMPI CALLDATASIZE PUSH1 0x23 DUP3 ADD SLT ISZERO PUSH2 0x27E JUMPI DUP1 PUSH1 0x4 ADD CALLDATALOAD PUSH8 0xFFFFFFFFFFFFFFFF DUP2 GT PUSH2 0x6E6 JUMPI PUSH1 0x40 MLOAD SWAP2 PUSH2 0x399 PUSH1 0x1F DUP4 ADD PUSH1 0x1F NOT AND PUSH1 0x20 ADD DUP5 PUSH2 0x1C67 JUMP JUMPDEST DUP2 DUP4 MSTORE CALLDATASIZE PUSH1 0x24 DUP4 DUP4 ADD ADD GT PUSH2 0x27E JUMPI DUP2 PUSH1 0x0 SWAP3 PUSH1 0x24 PUSH1 0x20 SWAP4 ADD DUP4 DUP7 ADD CALLDATACOPY DUP4 ADD ADD MSTORE PUSH2 0x3C9 PUSH1 0xFF PUSH1 0x5 SLOAD AND ISZERO PUSH2 0x1D97 JUMP JUMPDEST PUSH1 0x1 PUSH1 0xA SLOAD PUSH2 0x3DB PUSH1 0xFF DUP3 AND ISZERO PUSH2 0x1DD8 JUMP JUMPDEST PUSH1 0xFF NOT AND OR PUSH1 0xA SSTORE CALLER PUSH1 0x0 MSTORE PUSH1 0x6 PUSH1 0x20 MSTORE PUSH2 0x400 PUSH1 0xFF PUSH1 0x6 PUSH1 0x40 PUSH1 0x0 KECCAK256 ADD SLOAD AND PUSH2 0x1E15 JUMP JUMPDEST PUSH7 0x11C37937E08000 PUSH1 0x4 CALLDATALOAD LT ISZERO DUP1 PUSH2 0x8F2 JUMPI JUMPDEST ISZERO PUSH2 0x8B7 JUMPI PUSH3 0x278D00 PUSH1 0x24 CALLDATALOAD LT ISZERO DUP1 PUSH2 0x8A8 JUMPI JUMPDEST ISZERO PUSH2 0x870 JUMPI CALLER PUSH1 0x0 MSTORE PUSH1 0x6 PUSH1 0x20 MSTORE PUSH1 0x2 PUSH1 0x3 PUSH1 0x40 PUSH1 0x0 KECCAK256 ADD SLOAD LT ISZERO PUSH2 0x833 JUMPI PUSH2 0x44F CALLER PUSH2 0x1F55 JUMP JUMPDEST PUSH1 0x4 CALLDATALOAD GT PUSH2 0x7EE JUMPI PUSH2 0x467 PUSH1 0x1 SLOAD PUSH1 0x4 CALLDATALOAD GT ISZERO PUSH2 0x1E64 JUMP JUMPDEST PUSH1 0x4 SLOAD PUSH1 0x0 NOT DUP2 EQ PUSH2 0x7D8 JUMPI PUSH1 0x1 DUP2 ADD PUSH1 0x4 SSTORE PUSH2 0x1F4 PUSH1 0x4 CALLDATALOAD MUL PUSH1 0x4 CALLDATALOAD DUP2 DIV PUSH2 0x1F4 EQ PUSH1 0x4 CALLDATALOAD ISZERO OR ISZERO PUSH2 0x7D8 JUMPI DUP1 PUSH2 0x1F4 PUSH1 0x24 CALLDATALOAD PUSH1 0x4 CALLDATALOAD MUL MUL DIV PUSH1 0x24 CALLDATALOAD EQ SWAP1 ISZERO OR ISZERO PUSH2 0x7D8 JUMPI PUSH2 0x4CA PUSH5 0x496CEBB800 PUSH2 0x1F4 PUSH1 0x24 CALLDATALOAD PUSH1 0x4 CALLDATALOAD MUL MUL DIV PUSH1 0x4 CALLDATALOAD PUSH2 0x1E57 JUMP JUMPDEST PUSH1 0x40 MLOAD SWAP1 PUSH2 0x4D7 DUP3 PUSH2 0x1C4A JUMP JUMPDEST DUP3 DUP3 MSTORE CALLER PUSH1 0x20 DUP4 ADD MSTORE PUSH1 0x4 CALLDATALOAD PUSH1 0x40 DUP4 ADD MSTORE PUSH2 0x1F4 PUSH1 0x60 DUP4 ADD MSTORE PUSH1 0x24 CALLDATALOAD PUSH1 0x80 DUP4 ADD MSTORE PUSH1 0x0 PUSH1 0xA0 DUP4 ADD MSTORE PUSH1 0x0 PUSH1 0xC0 DUP4 ADD MSTORE PUSH1 0x0 PUSH1 0xE0 DUP4 ADD MSTORE PUSH2 0x100 DUP3 ADD MSTORE PUSH1 0x0 PUSH2 0x120 DUP3 ADD MSTORE DUP3 PUSH2 0x140 DUP3 ADD MSTORE TIMESTAMP PUSH2 0x160 DUP3 ADD MSTORE DUP2 PUSH1 0x0 MSTORE PUSH1 0x7 PUSH1 0x20 MSTORE PUSH1 0x40 PUSH1 0x0 KECCAK256 SWAP1 DUP1 MLOAD DUP3 SSTORE PUSH1 0x1 DUP3 ADD PUSH1 0x1 DUP1 PUSH1 0xA0 SHL SUB PUSH1 0x20 DUP4 ADD MLOAD AND PUSH12 0xFFFFFFFFFFFFFFFFFFFFFFFF PUSH1 0xA0 SHL DUP3 SLOAD AND OR SWAP1 SSTORE PUSH1 0x40 DUP2 ADD MLOAD PUSH1 0x2 DUP4 ADD SSTORE PUSH1 0x60 DUP2 ADD MLOAD PUSH1 0x3 DUP4 ADD SSTORE PUSH1 0x80 DUP2 ADD MLOAD PUSH1 0x4 DUP4 ADD SSTORE PUSH1 0xA0 DUP2 ADD MLOAD PUSH1 0x5 DUP4 ADD SSTORE PUSH1 0xC0 DUP2 ADD MLOAD PUSH1 0x6 DUP4 ADD SSTORE PUSH1 0xE0 DUP2 ADD MLOAD PUSH1 0x7 DUP4 ADD SSTORE PUSH2 0x100 DUP2 ADD MLOAD PUSH1 0x8 DUP4 ADD SSTORE PUSH1 0x9 DUP3 ADD PUSH2 0x120 DUP3 ADD MLOAD PUSH1 0x6 DUP2 LT ISZERO PUSH2 0x7C2 JUMPI PUSH1 0xFF DUP1 NOT DUP4 SLOAD AND SWAP2 AND OR SWAP1 SSTORE PUSH2 0x140 DUP2 ADD MLOAD DUP1 MLOAD SWAP1 PUSH8 0xFFFFFFFFFFFFFFFF DUP3 GT PUSH2 0x6E6 JUMPI PUSH2 0x5EE PUSH1 0xA DUP6 ADD SLOAD PUSH2 0x1CB7 JUMP JUMPDEST PUSH1 0x1F DUP2 GT PUSH2 0x77B JUMPI JUMPDEST POP PUSH1 0x20 SWAP1 PUSH1 0x1F DUP4 GT PUSH1 0x1 EQ PUSH2 0x707 JUMPI SWAP2 DUP1 PUSH1 0xB SWAP5 SWAP3 PUSH2 0x160 SWAP5 PUSH1 0x0 SWAP3 PUSH2 0x6FC JUMPI JUMPDEST POP POP DUP2 PUSH1 0x1 SHL SWAP2 PUSH1 0x0 NOT SWAP1 PUSH1 0x3 SHL SHR NOT AND OR PUSH1 0xA DUP6 ADD SSTORE JUMPDEST ADD MLOAD SWAP2 ADD SSTORE CALLER PUSH1 0x0 MSTORE PUSH1 0x8 PUSH1 0x20 MSTORE PUSH1 0x40 PUSH1 0x0 KECCAK256 SWAP2 DUP3 SLOAD SWAP3 PUSH9 0x10000000000000000 DUP5 LT ISZERO PUSH2 0x6E6 JUMPI DUP4 PUSH2 0x66A SWAP2 PUSH1 0x1 PUSH1 0x20 SWAP7 ADD DUP2 SSTORE PUSH2 0x1C89 JUMP JUMPDEST DUP2 SLOAD SWAP1 PUSH1 0x3 SHL SWAP1 DUP5 DUP3 SHL SWAP2 PUSH1 0x0 NOT SWAP1 SHL NOT AND OR SWAP1 SSTORE CALLER PUSH1 0x0 MSTORE PUSH1 0x6 DUP4 MSTORE TIMESTAMP PUSH1 0x7 PUSH1 0x40 PUSH1 0x0 KECCAK256 ADD SSTORE DUP2 PUSH32 0xFBBA0893DD1F941CB4A7BB791AED3CE1AD2A008C20EF3254B2A2CF7752B199F1 PUSH1 0x40 MLOAD PUSH1 0x4 CALLDATALOAD DUP2 MSTORE PUSH1 0x40 DUP7 DUP3 ADD MSTORE DUP1 PUSH2 0x6D1 CALLER SWAP6 PUSH1 0x40 DUP4 ADD SWAP1 PUSH2 0x1BED JUMP JUMPDEST SUB SWAP1 LOG3 PUSH1 0xFF NOT PUSH1 0xA SLOAD AND PUSH1 0xA SSTORE PUSH1 0x40 MLOAD SWAP1 DUP2 MSTORE RETURN JUMPDEST PUSH4 0x4E487B71 PUSH1 0xE0 SHL PUSH1 0x0 MSTORE PUSH1 0x41 PUSH1 0x4 MSTORE PUSH1 0x24 PUSH1 0x0 REVERT JUMPDEST ADD MLOAD SWAP1 POP DUP9 DUP1 PUSH2 0x618 JUMP JUMPDEST SWAP1 PUSH1 0x1F NOT DUP4 AND SWAP2 PUSH1 0xA DUP7 ADD PUSH1 0x0 MSTORE PUSH1 0x20 PUSH1 0x0 KECCAK256 SWAP3 PUSH1 0x0 JUMPDEST DUP2 DUP2 LT PUSH2 0x763 JUMPI POP SWAP3 PUSH1 0x1 SWAP3 DUP6 SWAP3 PUSH2 0x160 SWAP7 PUSH1 0xB SWAP9 SWAP7 LT PUSH2 0x74A JUMPI JUMPDEST POP POP POP DUP2 SHL ADD PUSH1 0xA DUP6 ADD SSTORE PUSH2 0x630 JUMP JUMPDEST ADD MLOAD PUSH1 0x0 NOT PUSH1 0xF8 DUP5 PUSH1 0x3 SHL AND SHR NOT AND SWAP1 SSTORE DUP9 DUP1 DUP1 PUSH2 0x73A JUMP JUMPDEST SWAP3 SWAP4 PUSH1 0x20 PUSH1 0x1 DUP2 SWAP3 DUP8 DUP7 ADD MLOAD DUP2 SSTORE ADD SWAP6 ADD SWAP4 ADD PUSH2 0x71E JUMP JUMPDEST PUSH1 0xA DUP6 ADD PUSH1 0x0 MSTORE PUSH1 0x20 PUSH1 0x0 KECCAK256 PUSH1 0x1F DUP5 ADD PUSH1 0x5 SHR DUP2 ADD PUSH1 0x20 DUP6 LT PUSH2 0x7BB JUMPI JUMPDEST PUSH1 0x1F DUP4 ADD PUSH1 0x5 SHR DUP3 ADD DUP2 LT PUSH2 0x7AF JUMPI POP POP PUSH2 0x5F7 JUMP JUMPDEST PUSH1 0x0 DUP2 SSTORE PUSH1 0x1 ADD PUSH2 0x799 JUMP JUMPDEST POP DUP1 PUSH2 0x799 JUMP JUMPDEST PUSH4 0x4E487B71 PUSH1 0xE0 SHL PUSH1 0x0 MSTORE PUSH1 0x21 PUSH1 0x4 MSTORE PUSH1 0x24 PUSH1 0x0 REVERT JUMPDEST PUSH4 0x4E487B71 PUSH1 0xE0 SHL PUSH1 0x0 MSTORE PUSH1 0x11 PUSH1 0x4 MSTORE PUSH1 0x24 PUSH1 0x0 REVERT JUMPDEST PUSH1 0x40 MLOAD PUSH3 0x461BCD PUSH1 0xE5 SHL DUP2 MSTORE PUSH1 0x20 PUSH1 0x4 DUP3 ADD MSTORE PUSH1 0x1B PUSH1 0x24 DUP3 ADD MSTORE PUSH32 0x416D6F756E74206578636565647320637265646974206C696D69740000000000 PUSH1 0x44 DUP3 ADD MSTORE PUSH1 0x64 SWAP1 REVERT JUMPDEST PUSH1 0x40 MLOAD PUSH3 0x461BCD PUSH1 0xE5 SHL DUP2 MSTORE PUSH1 0x20 PUSH1 0x4 DUP3 ADD MSTORE PUSH1 0x15 PUSH1 0x24 DUP3 ADD MSTORE PUSH21 0x546F6F206D616E7920616374697665206C6F616E73 PUSH1 0x58 SHL PUSH1 0x44 DUP3 ADD MSTORE PUSH1 0x64 SWAP1 REVERT JUMPDEST PUSH1 0x40 MLOAD PUSH3 0x461BCD PUSH1 0xE5 SHL DUP2 MSTORE PUSH1 0x20 PUSH1 0x4 DUP3 ADD MSTORE PUSH1 0x10 PUSH1 0x24 DUP3 ADD MSTORE PUSH16 0x24B73B30B634B210323AB930BA34B7B7 PUSH1 0x81 SHL PUSH1 0x44 DUP3 ADD MSTORE PUSH1 0x64 SWAP1 REVERT JUMPDEST POP PUSH3 0xED4E00 PUSH1 0x24 CALLDATALOAD GT ISZERO PUSH2 0x427 JUMP JUMPDEST PUSH1 0x40 MLOAD PUSH3 0x461BCD PUSH1 0xE5 SHL DUP2 MSTORE PUSH1 0x20 PUSH1 0x4 DUP3 ADD MSTORE PUSH1 0x13 PUSH1 0x24 DUP3 ADD MSTORE PUSH19 0x125B9D985B1A59081B1BD85B88185B5BDD5B9D PUSH1 0x6A SHL PUSH1 0x44 DUP3 ADD MSTORE PUSH1 0x64 SWAP1 REVERT JUMPDEST POP PUSH8 0x8AC7230489E80000 PUSH1 0x4 CALLDATALOAD GT ISZERO PUSH2 0x413 JUMP JUMPDEST CALLVALUE PUSH2 0x27E JUMPI PUSH1 0x0 CALLDATASIZE PUSH1 0x3 NOT ADD SLT PUSH2 0x27E JUMPI PUSH1 0x80 PUSH1 0x1 SLOAD PUSH1 0x2 SLOAD PUSH1 0x3 SLOAD SWAP1 PUSH1 0x40 MLOAD SWAP3 DUP4 MSTORE PUSH1 0x20 DUP4 ADD MSTORE PUSH1 0x40 DUP3 ADD MSTORE PUSH1 0x0 PUSH1 0x60 DUP3 ADD MSTORE RETURN JUMPDEST PUSH1 0x0 CALLDATASIZE PUSH1 0x3 NOT ADD SLT PUSH2 0x27E JUMPI PUSH2 0x957 PUSH1 0xFF PUSH1 0x5 SLOAD AND ISZERO PUSH2 0x1D97 JUMP JUMPDEST PUSH1 0xA SLOAD PUSH2 0x967 PUSH1 0xFF DUP3 AND ISZERO PUSH2 0x1DD8 JUMP JUMPDEST PUSH1 0x1 PUSH1 0xFF NOT DUP1 SWAP3 AND OR PUSH1 0xA SSTORE CALLER PUSH1 0x0 MSTORE PUSH1 0x20 PUSH1 0x6 DUP2 MSTORE PUSH2 0x991 PUSH1 0xFF PUSH1 0x6 PUSH1 0x40 PUSH1 0x0 KECCAK256 ADD SLOAD AND PUSH2 0x1E15 JUMP JUMPDEST PUSH7 0x38D7EA4C68000 CALLVALUE LT PUSH2 0xA97 JUMPI PUSH9 0x56BC75E2D63100000 CALLVALUE GT PUSH2 0xA5B JUMPI CALLER PUSH1 0x0 MSTORE PUSH1 0x9 DUP2 MSTORE PUSH1 0x40 PUSH1 0x0 KECCAK256 PUSH2 0x9C7 CALLVALUE DUP3 SLOAD PUSH2 0x1E57 JUMP JUMPDEST SWAP1 SSTORE PUSH2 0x9D5 CALLVALUE PUSH1 0x1 SLOAD PUSH2 0x1E57 JUMP JUMPDEST PUSH1 0x1 SSTORE CALLER PUSH1 0x0 MSTORE PUSH1 0x6 DUP2 MSTORE TIMESTAMP PUSH1 0x7 PUSH1 0x40 PUSH1 0x0 KECCAK256 ADD SSTORE PUSH1 0x40 MLOAD SWAP1 CALLVALUE DUP3 MSTORE TIMESTAMP SWAP1 DUP3 ADD MSTORE PUSH32 0x73A19DD210F1A7F902193214C0EE91DD35EE5B4D920CBA8D519ECA65A7B488CA PUSH1 0x40 CALLER SWAP3 LOG2 PUSH1 0x1 SLOAD PUSH1 0x2 SLOAD PUSH1 0x40 DUP1 MLOAD SWAP3 DUP4 MSTORE PUSH1 0x20 DUP4 ADD SWAP2 SWAP1 SWAP2 MSTORE TIMESTAMP SWAP1 DUP3 ADD MSTORE PUSH1 0x0 DUP1 MLOAD PUSH1 0x20 PUSH2 0x202A DUP4 CODECOPY DUP2 MLOAD SWAP2 MSTORE SWAP1 DUP1 PUSH1 0x60 DUP2 ADD JUMPDEST SUB SWAP1 LOG1 PUSH1 0xA SLOAD AND PUSH1 0xA SSTORE PUSH1 0x0 DUP1 RETURN JUMPDEST PUSH1 0x64 SWAP1 PUSH1 0x40 MLOAD SWAP1 PUSH3 0x461BCD PUSH1 0xE5 SHL DUP3 MSTORE PUSH1 0x4 DUP3 ADD MSTORE PUSH1 0x15 PUSH1 0x24 DUP3 ADD MSTORE PUSH21 0x10589BDD99481B585E1A5B5D5B4819195C1BDCDA5D PUSH1 0x5A SHL PUSH1 0x44 DUP3 ADD MSTORE REVERT JUMPDEST PUSH1 0x64 SWAP1 PUSH1 0x40 MLOAD SWAP1 PUSH3 0x461BCD PUSH1 0xE5 SHL DUP3 MSTORE PUSH1 0x4 DUP3 ADD MSTORE PUSH1 0x15 PUSH1 0x24 DUP3 ADD MSTORE PUSH21 0x10995B1BDDC81B5A5B9A5B5D5B4819195C1BDCDA5D PUSH1 0x5A SHL PUSH1 0x44 DUP3 ADD MSTORE REVERT JUMPDEST PUSH2 0x1BC3 JUMP JUMPDEST CALLVALUE PUSH2 0x27E JUMPI PUSH1 0x0 CALLDATASIZE PUSH1 0x3 NOT ADD SLT PUSH2 0x27E JUMPI PUSH1 0x20 PUSH1 0x40 MLOAD PUSH3 0x93A80 DUP2 MSTORE RETURN JUMPDEST CALLVALUE PUSH2 0x27E JUMPI PUSH1 0x20 CALLDATASIZE PUSH1 0x3 NOT ADD SLT PUSH2 0x27E JUMPI PUSH1 0x20 PUSH2 0xB19 PUSH2 0xB14 PUSH2 0x1BAD JUMP JUMPDEST PUSH2 0x1F55 JUMP JUMPDEST PUSH1 0x40 MLOAD SWAP1 DUP2 MSTORE RETURN JUMPDEST PUSH1 0x20 DUP1 PUSH1 0x3 NOT CALLDATASIZE ADD SLT PUSH2 0x27E JUMPI PUSH1 0x4 CALLDATALOAD PUSH2 0xB40 PUSH1 0xFF PUSH1 0x5 SLOAD AND ISZERO PUSH2 0x1D97 JUMP JUMPDEST PUSH1 0xA SWAP2 DUP3 SLOAD SWAP2 PUSH2 0xB53 PUSH1 0xFF DUP5 AND ISZERO PUSH2 0x1DD8 JUMP JUMPDEST PUSH1 0x1 SWAP1 DUP2 PUSH1 0xFF NOT DUP1 SWAP6 AND OR DUP6 SSTORE DUP1 PUSH1 0x0 MSTORE PUSH1 0x7 SWAP3 DUP4 DUP2 MSTORE PUSH1 0xFF PUSH1 0x9 PUSH1 0x40 PUSH1 0x0 KECCAK256 ADD SLOAD AND SWAP4 PUSH1 0x6 SWAP5 DUP6 DUP2 LT ISZERO PUSH2 0x7C2 JUMPI DUP5 EQ DUP1 ISZERO PUSH2 0xF17 JUMPI JUMPDEST PUSH2 0xB94 SWAP1 PUSH2 0x1F13 JUMP JUMPDEST PUSH1 0x0 DUP4 DUP2 MSTORE DUP2 DUP4 MSTORE PUSH1 0x40 SWAP1 KECCAK256 DUP5 ADD SLOAD PUSH1 0x1 PUSH1 0x1 PUSH1 0xA0 SHL SUB SWAP1 DUP2 AND CALLER SUB PUSH2 0xEDE JUMPI CALLVALUE ISZERO PUSH2 0xEA5 JUMPI DUP4 PUSH1 0x0 MSTORE DUP2 DUP4 MSTORE PUSH1 0x40 PUSH1 0x0 KECCAK256 PUSH1 0x8 DUP2 ADD SWAP1 DUP2 SLOAD SWAP1 DUP5 DUP2 ADD SWAP2 PUSH2 0xBDE DUP4 SLOAD DUP1 SWAP3 PUSH2 0x1EB0 JUMP JUMPDEST CALLVALUE GT PUSH2 0xE60 JUMPI SWAP1 PUSH2 0xBF2 PUSH1 0x9 SWAP3 CALLVALUE SWAP1 PUSH2 0x1E57 JUMP JUMPDEST DUP4 SSTORE PUSH2 0xC00 CALLVALUE PUSH1 0x3 SLOAD PUSH2 0x1E57 JUMP JUMPDEST PUSH1 0x3 SSTORE PUSH2 0xC0E CALLVALUE DUP11 SLOAD PUSH2 0x1E57 JUMP JUMPDEST DUP10 SSTORE CALLER PUSH1 0x0 MSTORE DUP10 DUP8 MSTORE PUSH1 0x2 PUSH1 0x40 PUSH1 0x0 KECCAK256 ADD PUSH2 0xC2A CALLVALUE DUP3 SLOAD PUSH2 0x1E57 JUMP JUMPDEST SWAP1 SSTORE CALLER PUSH1 0x0 MSTORE DUP10 DUP8 MSTORE TIMESTAMP DUP7 PUSH1 0x40 PUSH1 0x0 KECCAK256 ADD SSTORE ADD DUP1 SLOAD PUSH1 0xFF DUP2 AND DUP11 DUP2 LT ISZERO PUSH2 0x7C2 JUMPI DUP10 DUP13 SWAP2 EQ PUSH2 0xE52 JUMPI JUMPDEST POP POP POP PUSH1 0x40 MLOAD CALLVALUE DUP2 MSTORE DUP7 PUSH32 0x8138C96768BD65E56A78CCD77B0836274962D9E184373C9DA955793AC8E4AD22 DUP8 CALLER SWAP4 LOG3 SLOAD SWAP1 SLOAD GT ISZERO PUSH2 0xCCF JUMPI JUMPDEST DUP8 DUP8 PUSH1 0x0 DUP1 MLOAD PUSH1 0x20 PUSH2 0x202A DUP4 CODECOPY DUP2 MLOAD SWAP2 MSTORE DUP8 SLOAD PUSH1 0x2 SLOAD PUSH2 0xCC5 PUSH1 0x40 MLOAD SWAP3 DUP4 SWAP3 TIMESTAMP SWAP2 DUP5 PUSH1 0x40 SWAP2 SWAP5 SWAP4 SWAP3 PUSH1 0x60 DUP3 ADD SWAP6 DUP3 MSTORE PUSH1 0x20 DUP3 ADD MSTORE ADD MSTORE JUMP JUMPDEST SUB SWAP1 LOG1 DUP2 SLOAD AND SWAP1 SSTORE STOP JUMPDEST DUP4 PUSH1 0x0 MSTORE DUP2 DUP4 MSTORE PUSH1 0x40 PUSH1 0x0 KECCAK256 SWAP1 PUSH1 0x9 DUP3 ADD PUSH1 0x3 DUP10 DUP3 SLOAD AND OR SWAP1 SSTORE DUP6 DUP3 ADD SLOAD AND SWAP6 DUP7 PUSH1 0x0 MSTORE DUP1 DUP5 MSTORE PUSH1 0x3 PUSH1 0x40 PUSH1 0x0 KECCAK256 ADD DUP1 SLOAD PUSH1 0x0 NOT SWAP2 DUP3 DUP3 ADD SWAP2 DUP3 GT PUSH2 0x7D8 JUMPI SSTORE DUP8 PUSH1 0x0 MSTORE DUP2 DUP6 MSTORE PUSH1 0x4 PUSH1 0x40 PUSH1 0x0 KECCAK256 ADD DUP1 SLOAD SWAP1 DUP9 DUP3 ADD DUP1 SWAP3 GT PUSH2 0x7D8 JUMPI SSTORE PUSH1 0x2 SLOAD SWAP1 DUP2 ADD SWAP1 DUP2 GT PUSH2 0x7D8 JUMPI PUSH1 0x2 SSTORE DUP7 PUSH1 0x0 MSTORE DUP4 MSTORE PUSH1 0x40 PUSH1 0x0 KECCAK256 SWAP6 DUP7 SLOAD SWAP7 DUP8 PUSH1 0x32 SWAP1 PUSH1 0x4 DUP4 ADD SLOAD DUP1 ISZERO DUP1 ISZERO PUSH2 0xE06 JUMPI JUMPDEST POP POP PUSH1 0x0 DUP1 MLOAD PUSH1 0x20 PUSH2 0x202A DUP4 CODECOPY DUP2 MLOAD SWAP2 MSTORE SWAP10 PUSH32 0x3D7F456A773B484D2552719BD744B62049588737D6A02948EBA3DCAE1B0D77F SWAP8 SWAP7 SWAP6 SWAP5 SWAP4 PUSH2 0xDC2 PUSH32 0x4F43648F37BC26EE5BC39C60C1C1E2481A9FB9FEB9F86419C91B4645585FF3BC SWAP5 PUSH1 0x40 SWAP5 PUSH2 0x1E57 JUMP JUMPDEST PUSH2 0x3E8 DUP1 DUP3 GT PUSH2 0xDFE JUMPI JUMPDEST POP PUSH1 0x64 DUP2 LT PUSH2 0xDF6 JUMPI JUMPDEST DUP1 SWAP2 SSTORE DUP3 MLOAD SWAP2 DUP3 MSTORE DUP8 DUP3 ADD MSTORE LOG2 ADD SLOAD PUSH1 0x40 MLOAD SWAP1 DUP2 MSTORE LOG2 DUP5 DUP1 DUP1 DUP1 PUSH2 0xC8D JUMP JUMPDEST POP PUSH1 0x64 PUSH2 0xDD7 JUMP JUMPDEST SWAP1 POP DUP16 PUSH2 0xDCD JUMP JUMPDEST DUP14 DUP1 DUP4 SWAP11 SWAP10 SWAP9 SWAP8 SWAP7 SWAP11 MUL SWAP3 DUP4 DIV EQ OR ISZERO PUSH2 0x7D8 JUMPI DUP3 ADD DUP1 SWAP3 GT PUSH2 0x7D8 JUMPI SWAP5 SWAP6 SWAP4 SWAP5 SWAP3 SWAP4 SWAP2 SWAP3 DUP10 PUSH32 0x3D7F456A773B484D2552719BD744B62049588737D6A02948EBA3DCAE1B0D77F PUSH2 0xD5D JUMP JUMPDEST AND PUSH1 0x2 OR SWAP1 SSTORE DUP11 DUP1 DUP11 PUSH2 0xC54 JUMP JUMPDEST PUSH1 0x40 MLOAD PUSH3 0x461BCD PUSH1 0xE5 SHL DUP2 MSTORE PUSH1 0x4 DUP2 ADD DUP9 SWAP1 MSTORE PUSH1 0x17 PUSH1 0x24 DUP3 ADD MSTORE PUSH32 0x5061796D656E7420657863656564732062616C616E6365000000000000000000 PUSH1 0x44 DUP3 ADD MSTORE PUSH1 0x64 SWAP1 REVERT JUMPDEST PUSH1 0x40 MLOAD PUSH3 0x461BCD PUSH1 0xE5 SHL DUP2 MSTORE PUSH1 0x4 DUP2 ADD DUP5 SWAP1 MSTORE PUSH1 0x11 PUSH1 0x24 DUP3 ADD MSTORE PUSH17 0x139BC81C185E5B595B9D08185B5BDD5B9D PUSH1 0x7A SHL PUSH1 0x44 DUP3 ADD MSTORE PUSH1 0x64 SWAP1 REVERT JUMPDEST PUSH1 0x40 MLOAD PUSH3 0x461BCD PUSH1 0xE5 SHL DUP2 MSTORE PUSH1 0x4 DUP2 ADD DUP5 SWAP1 MSTORE PUSH1 0x11 PUSH1 0x24 DUP3 ADD MSTORE PUSH17 0x2737BA103637B0B7103137B93937BBB2B9 PUSH1 0x79 SHL PUSH1 0x44 DUP3 ADD MSTORE PUSH1 0x64 SWAP1 REVERT JUMPDEST POP DUP3 PUSH1 0x0 MSTORE DUP1 DUP3 MSTORE PUSH1 0xFF PUSH1 0x9 PUSH1 0x40 PUSH1 0x0 KECCAK256 ADD SLOAD AND DUP6 DUP2 LT ISZERO PUSH2 0x7C2 JUMPI PUSH1 0x2 EQ PUSH2 0xB8B JUMP JUMPDEST CALLVALUE PUSH2 0x27E JUMPI PUSH1 0x20 DUP1 PUSH1 0x3 NOT CALLDATASIZE ADD SLT PUSH2 0x27E JUMPI PUSH1 0x0 SLOAD PUSH1 0x4 CALLDATALOAD SWAP2 PUSH1 0x1 PUSH1 0x1 PUSH1 0xA0 SHL SUB SWAP2 PUSH2 0xF6A SWAP1 DUP4 AND CALLER EQ PUSH2 0x1EBD JUMP JUMPDEST PUSH1 0xA SLOAD SWAP3 PUSH2 0xF7B PUSH1 0xFF DUP6 AND ISZERO PUSH2 0x1DD8 JUMP JUMPDEST PUSH1 0x1 SWAP2 DUP3 PUSH1 0xFF NOT DUP1 SWAP7 AND OR PUSH1 0xA SSTORE DUP2 PUSH1 0x0 MSTORE PUSH1 0x7 DUP2 MSTORE PUSH1 0xFF PUSH1 0x9 PUSH1 0x40 PUSH1 0x0 KECCAK256 ADD SLOAD AND PUSH1 0x6 DUP2 LT ISZERO PUSH2 0x7C2 JUMPI PUSH2 0xFB0 SWAP1 ISZERO PUSH2 0x1F13 JUMP JUMPDEST DUP3 SLOAD DUP3 PUSH1 0x0 MSTORE PUSH1 0x7 DUP3 MSTORE PUSH1 0x2 PUSH1 0x40 PUSH1 0x0 KECCAK256 ADD SLOAD GT PUSH2 0x1126 JUMPI DUP2 PUSH1 0x0 MSTORE PUSH1 0x7 DUP2 MSTORE PUSH1 0x40 PUSH1 0x0 KECCAK256 SWAP1 PUSH1 0x9 DUP3 ADD DUP5 DUP8 DUP3 SLOAD AND OR SWAP1 SSTORE PUSH1 0x2 PUSH1 0x5 DUP4 ADD SWAP6 TIMESTAMP DUP8 SSTORE PUSH2 0xFFA PUSH1 0x4 DUP6 ADD SLOAD TIMESTAMP PUSH2 0x1E57 JUMP JUMPDEST PUSH1 0x6 DUP6 ADD SSTORE DUP6 DUP5 ADD SLOAD AND SWAP3 ADD SWAP2 DUP3 SLOAD DUP2 PUSH1 0x0 MSTORE PUSH1 0x6 DUP4 MSTORE PUSH2 0x1023 DUP7 PUSH1 0x40 PUSH1 0x0 KECCAK256 ADD SWAP2 DUP3 SLOAD PUSH2 0x1E57 JUMP JUMPDEST SWAP1 SSTORE DUP1 PUSH1 0x0 MSTORE PUSH1 0x6 DUP3 MSTORE PUSH1 0x3 PUSH1 0x40 PUSH1 0x0 KECCAK256 ADD DUP1 SLOAD SWAP1 DUP7 DUP3 ADD DUP1 SWAP3 GT PUSH2 0x7D8 JUMPI SSTORE DUP1 PUSH1 0x0 MSTORE PUSH1 0x6 DUP3 MSTORE TIMESTAMP PUSH1 0x7 PUSH1 0x40 PUSH1 0x0 KECCAK256 ADD SSTORE PUSH1 0x2 SLOAD DUP6 DUP2 ADD DUP1 SWAP2 GT PUSH2 0x7D8 JUMPI PUSH1 0x0 DUP1 DUP1 SWAP4 DUP2 SWAP4 PUSH1 0x2 SSTORE PUSH2 0x1078 DUP8 SLOAD DUP11 SLOAD PUSH2 0x1EB0 JUMP JUMPDEST DUP10 SSTORE DUP7 SLOAD SWAP1 DUP3 DUP3 ISZERO PUSH2 0x111D JUMPI JUMPDEST CALL ISZERO PUSH2 0x1111 JUMPI PUSH1 0x0 DUP1 MLOAD PUSH1 0x20 PUSH2 0x202A DUP4 CODECOPY DUP2 MLOAD SWAP2 MSTORE SWAP5 DUP4 PUSH31 0x25A2D6CA1B3DA40A46ECC2C7ECBDDB416FE7180003A0155B7E7D782D895F21 DUP4 PUSH32 0xBDB65D47867316D2084743D0502E9C6653D9AC7D35CC591028F1F32FBE0028E6 SWAP6 SLOAD PUSH1 0x40 MLOAD SWAP1 DUP2 MSTORE LOG2 SLOAD PUSH1 0x40 MLOAD SWAP1 DUP2 MSTORE LOG2 SLOAD PUSH1 0x2 SLOAD PUSH1 0x40 DUP1 MLOAD SWAP3 DUP4 MSTORE PUSH1 0x20 DUP4 ADD SWAP2 SWAP1 SWAP2 MSTORE TIMESTAMP SWAP1 DUP3 ADD MSTORE DUP1 PUSH1 0x60 DUP2 ADD PUSH2 0xA4C JUMP JUMPDEST PUSH1 0x40 MLOAD RETURNDATASIZE PUSH1 0x0 DUP3 RETURNDATACOPY RETURNDATASIZE SWAP1 REVERT JUMPDEST POP PUSH2 0x8FC PUSH2 0x1085 JUMP JUMPDEST PUSH1 0x64 SWAP1 PUSH1 0x40 MLOAD SWAP1 PUSH3 0x461BCD PUSH1 0xE5 SHL DUP3 MSTORE PUSH1 0x4 DUP3 ADD MSTORE PUSH1 0x16 PUSH1 0x24 DUP3 ADD MSTORE PUSH22 0x496E73756666696369656E74206C6971756964697479 PUSH1 0x50 SHL PUSH1 0x44 DUP3 ADD MSTORE REVERT JUMPDEST CALLVALUE PUSH2 0x27E JUMPI PUSH1 0x20 CALLDATASIZE PUSH1 0x3 NOT ADD SLT PUSH2 0x27E JUMPI PUSH1 0x1 PUSH1 0x1 PUSH1 0xA0 SHL SUB PUSH2 0x1184 PUSH2 0x1BAD JUMP JUMPDEST AND PUSH1 0x0 MSTORE PUSH1 0x6 PUSH1 0x20 MSTORE PUSH2 0x100 PUSH1 0x40 PUSH1 0x0 KECCAK256 DUP1 SLOAD SWAP1 PUSH1 0x1 DUP2 ADD SLOAD SWAP1 PUSH1 0x2 DUP2 ADD SLOAD PUSH1 0x3 DUP3 ADD SLOAD PUSH1 0x4 DUP4 ADD SLOAD SWAP1 PUSH1 0x5 DUP5 ADD SLOAD SWAP3 PUSH1 0x7 PUSH1 0xFF PUSH1 0x6 DUP8 ADD SLOAD AND SWAP6 ADD SLOAD SWAP6 PUSH1 0x40 MLOAD SWAP8 DUP9 MSTORE PUSH1 0x20 DUP9 ADD MSTORE PUSH1 0x40 DUP8 ADD MSTORE PUSH1 0x60 DUP7 ADD MSTORE PUSH1 0x80 DUP6 ADD MSTORE PUSH1 0xA0 DUP5 ADD MSTORE ISZERO ISZERO PUSH1 0xC0 DUP4 ADD MSTORE PUSH1 0xE0 DUP3 ADD MSTORE RETURN JUMPDEST CALLVALUE PUSH2 0x27E JUMPI PUSH1 0x0 CALLDATASIZE PUSH1 0x3 NOT ADD SLT PUSH2 0x27E JUMPI PUSH1 0x20 PUSH1 0x1 SLOAD PUSH1 0x40 MLOAD SWAP1 DUP2 MSTORE RETURN JUMPDEST CALLVALUE PUSH2 0x27E JUMPI PUSH1 0x0 CALLDATASIZE PUSH1 0x3 NOT ADD SLT PUSH2 0x27E JUMPI PUSH1 0x0 SLOAD PUSH1 0x40 MLOAD PUSH1 0x1 PUSH1 0x1 PUSH1 0xA0 SHL SUB SWAP1 SWAP2 AND DUP2 MSTORE PUSH1 0x20 SWAP1 RETURN JUMPDEST CALLVALUE PUSH2 0x27E JUMPI PUSH1 0x0 CALLDATASIZE PUSH1 0x3 NOT ADD SLT PUSH2 0x27E JUMPI PUSH1 0x20 PUSH1 0x3 SLOAD PUSH1 0x40 MLOAD SWAP1 DUP2 MSTORE RETURN JUMPDEST CALLVALUE PUSH2 0x27E JUMPI PUSH1 0x0 CALLDATASIZE PUSH1 0x3 NOT ADD SLT PUSH2 0x27E JUMPI PUSH1 0x20 PUSH1 0x4 SLOAD PUSH1 0x40 MLOAD SWAP1 DUP2 MSTORE RETURN JUMPDEST CALLVALUE PUSH2 0x27E JUMPI PUSH1 0x0 CALLDATASIZE PUSH1 0x3 NOT ADD SLT PUSH2 0x27E JUMPI PUSH2 0x1298 PUSH1 0x1 DUP1 PUSH1 0xA0 SHL SUB PUSH1 0x0 SLOAD AND CALLER EQ PUSH2 0x1EBD JUMP JUMPDEST PUSH1 0x5 DUP1 SLOAD PUSH1 0xFF NOT AND PUSH1 0x1 OR SWAP1 SSTORE STOP JUMPDEST CALLVALUE PUSH2 0x27E JUMPI PUSH1 0x0 CALLDATASIZE PUSH1 0x3 NOT ADD SLT PUSH2 0x27E JUMPI PUSH1 0x20 PUSH1 0x40 MLOAD PUSH1 0x2 DUP2 MSTORE RETURN JUMPDEST CALLVALUE PUSH2 0x27E JUMPI PUSH1 0x20 DUP1 PUSH1 0x3 NOT CALLDATASIZE ADD SLT PUSH2 0x27E JUMPI PUSH1 0x4 CALLDATALOAD SWAP1 DUP2 PUSH1 0x0 MSTORE PUSH1 0x7 SWAP1 DUP2 DUP2 MSTORE PUSH1 0xFF PUSH1 0x9 PUSH1 0x40 PUSH1 0x0 KECCAK256 ADD SLOAD AND SWAP2 PUSH1 0x6 SWAP3 DUP4 DUP2 LT ISZERO PUSH2 0x7C2 JUMPI PUSH1 0x1 EQ DUP1 ISZERO PUSH2 0x14D2 JUMPI JUMPDEST PUSH2 0x130E SWAP1 PUSH2 0x1F13 JUMP JUMPDEST DUP4 PUSH1 0x0 MSTORE DUP1 DUP3 MSTORE DUP3 PUSH1 0x40 PUSH1 0x0 KECCAK256 ADD SLOAD PUSH3 0x93A80 DUP2 ADD DUP1 SWAP2 GT PUSH2 0x7D8 JUMPI TIMESTAMP GT ISZERO PUSH2 0x1495 JUMPI DUP4 PUSH1 0x0 MSTORE DUP1 DUP3 MSTORE PUSH1 0x40 PUSH1 0x0 KECCAK256 PUSH1 0x8 DUP3 DUP3 ADD SLOAD SWAP2 ADD SLOAD GT ISZERO PUSH2 0x145A JUMPI PUSH1 0x0 DUP5 DUP2 MSTORE SWAP1 DUP3 MSTORE PUSH1 0x40 DUP1 DUP3 KECCAK256 PUSH1 0x9 DUP2 ADD DUP1 SLOAD PUSH1 0xFF NOT AND PUSH1 0x4 OR SWAP1 SSTORE PUSH1 0x1 ADD SLOAD PUSH1 0x1 PUSH1 0x1 PUSH1 0xA0 SHL SUB AND DUP1 DUP4 MSTORE DUP5 DUP5 MSTORE SWAP2 KECCAK256 PUSH1 0x3 ADD DUP1 SLOAD SWAP2 SWAP4 SWAP2 PUSH1 0x0 NOT SWAP2 DUP3 DUP3 ADD SWAP2 DUP3 GT PUSH2 0x7D8 JUMPI SSTORE DUP4 PUSH1 0x0 MSTORE DUP2 DUP4 MSTORE PUSH1 0x5 PUSH1 0x40 PUSH1 0x0 KECCAK256 ADD DUP1 SLOAD SWAP1 PUSH1 0x1 DUP3 ADD DUP1 SWAP3 GT PUSH2 0x7D8 JUMPI SSTORE PUSH1 0x2 SLOAD SWAP1 DUP2 ADD SWAP1 DUP2 GT PUSH2 0x7D8 JUMPI PUSH1 0x2 SSTORE DUP3 PUSH1 0x0 MSTORE DUP2 MSTORE PUSH1 0x40 PUSH1 0x0 KECCAK256 DUP1 SLOAD DUP1 PUSH1 0x63 NOT DUP2 ADD SWAP1 DUP2 GT PUSH2 0x7D8 JUMPI PUSH32 0x4F43648F37BC26EE5BC39C60C1C1E2481A9FB9FEB9F86419C91B4645585FF3BC SWAP4 PUSH1 0x40 SWAP4 PUSH2 0x3E8 DUP1 DUP5 GT PUSH2 0x1452 JUMPI JUMPDEST POP PUSH1 0x64 DUP4 LT PUSH2 0x1449 JUMPI JUMPDEST DUP3 SWAP1 SSTORE DUP4 MLOAD SWAP3 DUP4 MSTORE DUP3 ADD MSTORE LOG2 PUSH32 0x789B7097E8066538CFAA1132488B132E14BA5F0C938C8B7AAF8CF40356AAB0B PUSH1 0x0 DUP1 LOG2 STOP JUMPDEST PUSH1 0x64 SWAP3 POP PUSH2 0x1416 JUMP JUMPDEST SWAP3 POP DUP9 PUSH2 0x140C JUMP JUMPDEST PUSH1 0x40 MLOAD PUSH3 0x461BCD PUSH1 0xE5 SHL DUP2 MSTORE PUSH1 0x4 DUP2 ADD DUP4 SWAP1 MSTORE PUSH1 0x13 PUSH1 0x24 DUP3 ADD MSTORE PUSH19 0x131BD85B88185B1C9958591E481C995C185A59 PUSH1 0x6A SHL PUSH1 0x44 DUP3 ADD MSTORE PUSH1 0x64 SWAP1 REVERT JUMPDEST PUSH1 0x40 MLOAD PUSH3 0x461BCD PUSH1 0xE5 SHL DUP2 MSTORE PUSH1 0x4 DUP2 ADD DUP4 SWAP1 MSTORE PUSH1 0x15 PUSH1 0x24 DUP3 ADD MSTORE PUSH21 0x23B930B1B2903832B934B7B2103737BA1037BB32B9 PUSH1 0x59 SHL PUSH1 0x44 DUP3 ADD MSTORE PUSH1 0x64 SWAP1 REVERT JUMPDEST POP DUP4 PUSH1 0x0 MSTORE DUP1 DUP3 MSTORE PUSH1 0xFF PUSH1 0x9 PUSH1 0x40 PUSH1 0x0 KECCAK256 ADD SLOAD AND DUP4 DUP2 LT ISZERO PUSH2 0x7C2 JUMPI PUSH1 0x2 EQ PUSH2 0x1305 JUMP JUMPDEST CALLVALUE PUSH2 0x27E JUMPI PUSH1 0x0 CALLDATASIZE PUSH1 0x3 NOT ADD SLT PUSH2 0x27E JUMPI PUSH1 0x20 PUSH1 0x40 MLOAD PUSH7 0x11C37937E08000 DUP2 MSTORE RETURN JUMPDEST CALLVALUE PUSH2 0x27E JUMPI PUSH1 0x20 CALLDATASIZE PUSH1 0x3 NOT ADD SLT PUSH2 0x27E JUMPI PUSH1 0x4 CALLDATALOAD PUSH1 0x0 MSTORE PUSH1 0x7 PUSH1 0x20 MSTORE PUSH1 0x40 PUSH1 0x0 KECCAK256 PUSH1 0x40 MLOAD SWAP1 PUSH2 0x1546 DUP3 PUSH2 0x1C4A JUMP JUMPDEST DUP1 SLOAD DUP3 MSTORE PUSH1 0x1 DUP2 ADD SLOAD PUSH1 0x1 PUSH1 0x1 PUSH1 0xA0 SHL SUB AND PUSH1 0x20 DUP4 ADD MSTORE PUSH1 0x2 DUP2 ADD SLOAD PUSH1 0x40 DUP4 ADD MSTORE PUSH1 0x3 DUP2 ADD SLOAD PUSH1 0x60 DUP4 ADD MSTORE PUSH1 0x4 DUP2 ADD SLOAD PUSH1 0x80 DUP4 ADD MSTORE PUSH1 0x5 DUP2 ADD SLOAD PUSH1 0xA0 DUP4 ADD MSTORE PUSH1 0x6 DUP1 DUP3 ADD SLOAD PUSH1 0xC0 DUP5 ADD MSTORE PUSH1 0x7 DUP3 ADD SLOAD PUSH1 0xE0 DUP5 ADD MSTORE PUSH1 0x8 DUP3 ADD SLOAD PUSH2 0x100 DUP5 ADD MSTORE PUSH1 0x9 DUP3 ADD SLOAD PUSH1 0xFF AND SWAP2 SWAP1 DUP3 LT ISZERO PUSH2 0x7C2 JUMPI PUSH1 0xB SWAP2 PUSH2 0x120 DUP5 ADD MSTORE PUSH2 0x15CB PUSH1 0xA DUP3 ADD PUSH2 0x1CF1 JUMP JUMPDEST PUSH2 0x140 DUP5 ADD MSTORE ADD SLOAD PUSH2 0x160 DUP3 ADD MSTORE PUSH1 0x1 DUP1 PUSH1 0xA0 SHL SUB PUSH1 0x20 DUP3 ADD MLOAD AND PUSH1 0x40 DUP3 ADD MLOAD SWAP2 PUSH1 0x60 DUP2 ADD MLOAD SWAP1 PUSH1 0x80 DUP2 ADD MLOAD SWAP1 PUSH1 0xA0 DUP2 ADD MLOAD SWAP2 PUSH1 0xC0 DUP3 ADD MLOAD PUSH1 0xE0 DUP4 ADD MLOAD PUSH2 0x100 DUP5 ADD MLOAD SWAP1 PUSH2 0x120 DUP6 ADD MLOAD SWAP3 PUSH1 0x6 DUP5 LT ISZERO PUSH2 0x7C2 JUMPI PUSH2 0x167E SWAP7 PUSH2 0x166A SWAP6 PUSH2 0x160 PUSH2 0x140 DUP10 ADD MLOAD SWAP9 ADD MLOAD SWAP10 PUSH1 0x40 MLOAD SWAP13 DUP14 SWAP13 DUP14 MSTORE PUSH1 0x20 DUP14 ADD MSTORE PUSH1 0x40 DUP13 ADD MSTORE PUSH1 0x60 DUP12 ADD MSTORE PUSH1 0x80 DUP11 ADD MSTORE PUSH1 0xA0 DUP10 ADD MSTORE PUSH1 0xC0 DUP9 ADD MSTORE PUSH1 0xE0 DUP8 ADD MSTORE PUSH2 0x100 DUP7 ADD SWAP1 PUSH2 0x1BE0 JUMP JUMPDEST PUSH2 0x160 PUSH2 0x120 DUP6 ADD MSTORE PUSH2 0x160 DUP5 ADD SWAP1 PUSH2 0x1BED JUMP JUMPDEST SWAP1 PUSH2 0x140 DUP4 ADD MSTORE SUB SWAP1 RETURN JUMPDEST CALLVALUE PUSH2 0x27E JUMPI PUSH1 0x0 CALLDATASIZE PUSH1 0x3 NOT ADD SLT PUSH2 0x27E JUMPI PUSH1 0x20 PUSH1 0x40 MLOAD PUSH8 0x8AC7230489E80000 DUP2 MSTORE RETURN JUMPDEST CALLVALUE PUSH2 0x27E JUMPI PUSH1 0x0 CALLDATASIZE PUSH1 0x3 NOT ADD SLT PUSH2 0x27E JUMPI PUSH1 0x20 PUSH1 0xFF PUSH1 0x5 SLOAD AND PUSH1 0x40 MLOAD SWAP1 ISZERO ISZERO DUP2 MSTORE RETURN JUMPDEST CALLVALUE PUSH2 0x27E JUMPI PUSH1 0x0 CALLDATASIZE PUSH1 0x3 NOT ADD SLT PUSH2 0x27E JUMPI PUSH1 0x20 PUSH1 0x40 MLOAD PUSH2 0x3E8 DUP2 MSTORE RETURN JUMPDEST CALLVALUE PUSH2 0x27E JUMPI PUSH1 0x20 CALLDATASIZE PUSH1 0x3 NOT ADD SLT PUSH2 0x27E JUMPI PUSH2 0x100 PUSH2 0x1708 PUSH2 0x1BAD JUMP JUMPDEST PUSH1 0x1 PUSH1 0x1 PUSH1 0xA0 SHL SUB DUP2 AND PUSH1 0x0 DUP2 DUP2 MSTORE PUSH1 0x6 PUSH1 0x20 MSTORE PUSH1 0x40 SWAP1 DUP2 SWAP1 KECCAK256 SWAP1 MLOAD SWAP3 SWAP1 PUSH2 0x172F DUP5 PUSH2 0x1C2D JUMP JUMPDEST DUP1 SLOAD SWAP4 DUP5 DUP2 MSTORE PUSH1 0x1 DUP3 ADD SLOAD SWAP4 DUP5 PUSH1 0x20 DUP4 ADD MSTORE PUSH1 0x2 DUP4 ADD SLOAD DUP1 PUSH1 0x40 DUP5 ADD MSTORE PUSH1 0x3 DUP5 ADD SLOAD SWAP2 DUP3 PUSH1 0x60 DUP6 ADD MSTORE PUSH1 0x4 DUP6 ADD SLOAD SWAP4 DUP5 PUSH1 0x80 DUP3 ADD MSTORE PUSH1 0xE0 PUSH1 0x7 PUSH1 0x5 DUP9 ADD SLOAD SWAP8 DUP9 PUSH1 0xA0 DUP6 ADD MSTORE PUSH1 0xFF PUSH1 0x6 DUP3 ADD SLOAD AND ISZERO ISZERO PUSH1 0xC0 DUP6 ADD MSTORE ADD SLOAD SWAP2 ADD MSTORE PUSH1 0x0 MSTORE PUSH1 0x9 PUSH1 0x20 MSTORE PUSH2 0x179F PUSH1 0x40 PUSH1 0x0 KECCAK256 SLOAD SWAP6 PUSH2 0x1F55 JUMP JUMPDEST SWAP6 PUSH1 0x40 MLOAD SWAP8 DUP9 MSTORE PUSH1 0x20 DUP9 ADD MSTORE PUSH1 0x40 DUP8 ADD MSTORE PUSH1 0x60 DUP7 ADD MSTORE PUSH1 0x80 DUP6 ADD MSTORE PUSH1 0xA0 DUP5 ADD MSTORE PUSH1 0xC0 DUP4 ADD MSTORE PUSH1 0xE0 DUP3 ADD MSTORE RETURN JUMPDEST CALLVALUE PUSH2 0x27E JUMPI PUSH1 0x0 CALLDATASIZE PUSH1 0x3 NOT ADD SLT PUSH2 0x27E JUMPI PUSH2 0x17F1 PUSH1 0x1 DUP1 PUSH1 0xA0 SHL SUB PUSH1 0x0 SLOAD AND CALLER EQ PUSH2 0x1EBD JUMP JUMPDEST PUSH1 0x5 DUP1 SLOAD PUSH1 0xFF NOT AND SWAP1 SSTORE STOP JUMPDEST CALLVALUE PUSH2 0x27E JUMPI PUSH1 0x20 DUP1 PUSH1 0x3 NOT CALLDATASIZE ADD SLT PUSH2 0x27E JUMPI PUSH1 0x4 CALLDATALOAD PUSH2 0x1821 PUSH1 0xFF PUSH1 0x5 SLOAD AND ISZERO PUSH2 0x1D97 JUMP JUMPDEST PUSH1 0xA SLOAD SWAP2 PUSH2 0x1832 PUSH1 0xFF DUP5 AND ISZERO PUSH2 0x1DD8 JUMP JUMPDEST PUSH1 0x1 PUSH1 0xFF NOT DUP1 SWAP5 AND OR PUSH1 0xA SSTORE CALLER PUSH1 0x0 MSTORE PUSH1 0x6 DUP2 MSTORE PUSH2 0x185A PUSH1 0xFF PUSH1 0x6 PUSH1 0x40 PUSH1 0x0 KECCAK256 ADD SLOAD AND PUSH2 0x1E15 JUMP JUMPDEST CALLER PUSH1 0x0 MSTORE PUSH1 0x9 DUP2 MSTORE DUP2 PUSH1 0x40 PUSH1 0x0 KECCAK256 SLOAD LT PUSH2 0x193E JUMPI PUSH2 0x187C PUSH1 0x1 SLOAD DUP4 GT ISZERO PUSH2 0x1E64 JUMP JUMPDEST CALLER PUSH1 0x0 MSTORE PUSH1 0x9 DUP2 MSTORE PUSH1 0x40 PUSH1 0x0 KECCAK256 PUSH2 0x1894 DUP4 DUP3 SLOAD PUSH2 0x1EB0 JUMP JUMPDEST SWAP1 SSTORE PUSH2 0x18A2 DUP3 PUSH1 0x1 SLOAD PUSH2 0x1EB0 JUMP JUMPDEST PUSH1 0x1 SSTORE CALLER PUSH1 0x0 MSTORE PUSH1 0x6 DUP2 MSTORE TIMESTAMP PUSH1 0x7 PUSH1 0x40 PUSH1 0x0 KECCAK256 ADD SSTORE DUP2 PUSH1 0x0 DUP2 ISZERO PUSH2 0x1935 JUMPI JUMPDEST PUSH1 0x0 DUP1 DUP1 SWAP4 DUP2 SWAP4 CALLER SWAP1 CALL ISZERO PUSH2 0x1111 JUMPI PUSH1 0x40 MLOAD SWAP2 DUP3 MSTORE TIMESTAMP SWAP1 DUP3 ADD MSTORE PUSH32 0x92CCF450A286A957AF52509BC1C9939D1A6A481783E142E41E2499F0BB66EBC6 PUSH1 0x40 CALLER SWAP3 LOG2 PUSH1 0x1 SLOAD PUSH1 0x2 SLOAD PUSH1 0x40 DUP1 MLOAD SWAP3 DUP4 MSTORE PUSH1 0x20 DUP4 ADD SWAP2 SWAP1 SWAP2 MSTORE TIMESTAMP SWAP1 DUP3 ADD MSTORE PUSH1 0x0 DUP1 MLOAD PUSH1 0x20 PUSH2 0x202A DUP4 CODECOPY DUP2 MLOAD SWAP2 MSTORE SWAP1 DUP1 PUSH1 0x60 DUP2 ADD PUSH2 0xA4C JUMP JUMPDEST POP PUSH2 0x8FC PUSH2 0x18C1 JUMP JUMPDEST PUSH1 0x64 SWAP1 PUSH1 0x40 MLOAD SWAP1 PUSH3 0x461BCD PUSH1 0xE5 SHL DUP3 MSTORE PUSH1 0x4 DUP3 ADD MSTORE PUSH1 0x1C PUSH1 0x24 DUP3 ADD MSTORE PUSH32 0x496E73756666696369656E74206465706F7369742062616C616E636500000000 PUSH1 0x44 DUP3 ADD MSTORE REVERT JUMPDEST CALLVALUE PUSH2 0x27E JUMPI PUSH1 0x0 CALLDATASIZE PUSH1 0x3 NOT ADD SLT PUSH2 0x27E JUMPI PUSH2 0x19A2 PUSH1 0xFF PUSH1 0x5 SLOAD AND ISZERO PUSH2 0x1D97 JUMP JUMPDEST CALLER PUSH1 0x0 MSTORE PUSH1 0x6 PUSH1 0x20 MSTORE PUSH1 0xFF PUSH1 0x6 PUSH1 0x40 PUSH1 0x0 KECCAK256 ADD SLOAD AND PUSH2 0x1A7E JUMPI PUSH1 0x40 MLOAD PUSH2 0x19C7 DUP2 PUSH2 0x1C2D JUMP JUMPDEST PUSH2 0x1F4 DUP2 MSTORE PUSH1 0x7 PUSH1 0x20 DUP3 ADD PUSH1 0x0 DUP2 MSTORE PUSH1 0x40 DUP4 ADD PUSH1 0x0 DUP2 MSTORE PUSH1 0x60 DUP5 ADD PUSH1 0x0 DUP2 MSTORE PUSH1 0x80 DUP6 ADD PUSH1 0x0 DUP2 MSTORE PUSH1 0xA0 DUP7 ADD SWAP2 PUSH1 0x0 DUP4 MSTORE PUSH1 0xC0 DUP8 ADD SWAP4 PUSH1 0x1 DUP6 MSTORE PUSH1 0xE0 DUP9 ADD SWAP6 TIMESTAMP DUP8 MSTORE CALLER PUSH1 0x0 MSTORE PUSH1 0x6 PUSH1 0x20 MSTORE PUSH1 0x40 PUSH1 0x0 KECCAK256 SWAP9 MLOAD DUP10 SSTORE MLOAD PUSH1 0x1 DUP10 ADD SSTORE MLOAD PUSH1 0x2 DUP9 ADD SSTORE MLOAD PUSH1 0x3 DUP8 ADD SSTORE MLOAD PUSH1 0x4 DUP7 ADD SSTORE MLOAD PUSH1 0x5 DUP6 ADD SSTORE PUSH1 0x6 DUP5 ADD SWAP1 MLOAD ISZERO ISZERO PUSH1 0xFF DUP1 NOT DUP4 SLOAD AND SWAP2 AND OR SWAP1 SSTORE MLOAD SWAP2 ADD SSTORE PUSH1 0x40 MLOAD TIMESTAMP DUP2 MSTORE PUSH32 0xE29D35093005F4D575E1003753426B57A7F64378BA73332EEF9C6CCC2B8DECD6 PUSH1 0x20 CALLER SWAP3 LOG2 STOP JUMPDEST PUSH1 0x40 MLOAD PUSH3 0x461BCD PUSH1 0xE5 SHL DUP2 MSTORE PUSH1 0x20 PUSH1 0x4 DUP3 ADD MSTORE PUSH1 0x17 PUSH1 0x24 DUP3 ADD MSTORE PUSH32 0x5573657220616C72656164792072656769737465726564000000000000000000 PUSH1 0x44 DUP3 ADD MSTORE PUSH1 0x64 SWAP1 REVERT JUMPDEST CALLVALUE PUSH2 0x27E JUMPI PUSH1 0x20 CALLDATASIZE PUSH1 0x3 NOT ADD SLT PUSH2 0x27E JUMPI PUSH1 0x1 PUSH1 0x1 PUSH1 0xA0 SHL SUB PUSH2 0x1AE4 PUSH2 0x1BAD JUMP JUMPDEST AND PUSH1 0x0 MSTORE PUSH1 0x9 PUSH1 0x20 MSTORE PUSH1 0x20 PUSH1 0x40 PUSH1 0x0 KECCAK256 SLOAD PUSH1 0x40 MLOAD SWAP1 DUP2 MSTORE RETURN JUMPDEST CALLVALUE PUSH2 0x27E JUMPI PUSH1 0x20 SWAP1 DUP2 PUSH1 0x3 NOT CALLDATASIZE ADD SLT PUSH2 0x27E JUMPI PUSH1 0x1 PUSH1 0x1 PUSH1 0xA0 SHL SUB PUSH2 0x1B20 PUSH2 0x1BAD JUMP JUMPDEST AND PUSH1 0x0 MSTORE PUSH1 0x8 DUP3 MSTORE PUSH1 0x40 PUSH1 0x0 KECCAK256 DUP1 SLOAD DUP1 DUP4 MSTORE DUP4 DUP4 ADD SWAP1 DUP2 SWAP3 PUSH1 0x0 MSTORE DUP5 PUSH1 0x0 KECCAK256 SWAP1 PUSH1 0x0 JUMPDEST DUP7 DUP3 DUP3 LT PUSH2 0x1B99 JUMPI DUP7 DUP7 PUSH2 0x1B59 DUP3 DUP9 SUB DUP4 PUSH2 0x1C67 JUMP JUMPDEST PUSH1 0x40 MLOAD SWAP3 DUP4 SWAP3 DUP2 DUP5 ADD SWAP1 DUP3 DUP6 MSTORE MLOAD DUP1 SWAP2 MSTORE PUSH1 0x40 DUP5 ADD SWAP3 SWAP2 PUSH1 0x0 JUMPDEST DUP3 DUP2 LT PUSH2 0x1B82 JUMPI POP POP POP POP SUB SWAP1 RETURN JUMPDEST DUP4 MLOAD DUP6 MSTORE DUP7 SWAP6 POP SWAP4 DUP2 ADD SWAP4 SWAP3 DUP2 ADD SWAP3 PUSH1 0x1 ADD PUSH2 0x1B73 JUMP JUMPDEST DUP4 SLOAD DUP6 MSTORE SWAP1 SWAP4 ADD SWAP3 PUSH1 0x1 SWAP3 DUP4 ADD SWAP3 ADD PUSH2 0x1B43 JUMP JUMPDEST PUSH1 0x4 CALLDATALOAD SWAP1 PUSH1 0x1 PUSH1 0x1 PUSH1 0xA0 SHL SUB DUP3 AND DUP3 SUB PUSH2 0x27E JUMPI JUMP JUMPDEST CALLVALUE PUSH2 0x27E JUMPI PUSH1 0x0 CALLDATASIZE PUSH1 0x3 NOT ADD SLT PUSH2 0x27E JUMPI PUSH1 0x20 PUSH1 0x40 MLOAD PUSH2 0x1F4 DUP2 MSTORE RETURN JUMPDEST SWAP1 PUSH1 0x6 DUP3 LT ISZERO PUSH2 0x7C2 JUMPI MSTORE JUMP JUMPDEST SWAP2 SWAP1 DUP3 MLOAD SWAP3 DUP4 DUP3 MSTORE PUSH1 0x0 JUMPDEST DUP5 DUP2 LT PUSH2 0x1C19 JUMPI POP POP DUP3 PUSH1 0x0 PUSH1 0x20 DUP1 SWAP5 SWAP6 DUP5 ADD ADD MSTORE PUSH1 0x1F DUP1 NOT SWAP2 ADD AND ADD ADD SWAP1 JUMP JUMPDEST PUSH1 0x20 DUP2 DUP4 ADD DUP2 ADD MLOAD DUP5 DUP4 ADD DUP3 ADD MSTORE ADD PUSH2 0x1BF8 JUMP JUMPDEST PUSH2 0x100 DUP2 ADD SWAP1 DUP2 LT PUSH8 0xFFFFFFFFFFFFFFFF DUP3 GT OR PUSH2 0x6E6 JUMPI PUSH1 0x40 MSTORE JUMP JUMPDEST PUSH2 0x180 DUP2 ADD SWAP1 DUP2 LT PUSH8 0xFFFFFFFFFFFFFFFF DUP3 GT OR PUSH2 0x6E6 JUMPI PUSH1 0x40 MSTORE JUMP JUMPDEST SWAP1 PUSH1 0x1F DUP1 NOT SWAP2 ADD AND DUP2 ADD SWAP1 DUP2 LT PUSH8 0xFFFFFFFFFFFFFFFF DUP3 GT OR PUSH2 0x6E6 JUMPI PUSH1 0x40 MSTORE JUMP JUMPDEST DUP1 SLOAD DUP3 LT ISZERO PUSH2 0x1CA1 JUMPI PUSH1 0x0 MSTORE PUSH1 0x20 PUSH1 0x0 KECCAK256 ADD SWAP1 PUSH1 0x0 SWAP1 JUMP JUMPDEST PUSH4 0x4E487B71 PUSH1 0xE0 SHL PUSH1 0x0 MSTORE PUSH1 0x32 PUSH1 0x4 MSTORE PUSH1 0x24 PUSH1 0x0 REVERT JUMPDEST SWAP1 PUSH1 0x1 DUP3 DUP2 SHR SWAP3 AND DUP1 ISZERO PUSH2 0x1CE7 JUMPI JUMPDEST PUSH1 0x20 DUP4 LT EQ PUSH2 0x1CD1 JUMPI JUMP JUMPDEST PUSH4 0x4E487B71 PUSH1 0xE0 SHL PUSH1 0x0 MSTORE PUSH1 0x22 PUSH1 0x4 MSTORE PUSH1 0x24 PUSH1 0x0 REVERT JUMPDEST SWAP2 PUSH1 0x7F AND SWAP2 PUSH2 0x1CC6 JUMP JUMPDEST SWAP1 PUSH1 0x40 MLOAD SWAP2 DUP3 PUSH1 0x0 DUP3 SLOAD SWAP3 PUSH2 0x1D05 DUP5 PUSH2 0x1CB7 JUMP JUMPDEST SWAP1 DUP2 DUP5 MSTORE PUSH1 0x1 SWAP5 DUP6 DUP2 AND SWAP1 DUP2 PUSH1 0x0 EQ PUSH2 0x1D74 JUMPI POP PUSH1 0x1 EQ PUSH2 0x1D31 JUMPI JUMPDEST POP POP PUSH2 0x1D2F SWAP3 POP SUB DUP4 PUSH2 0x1C67 JUMP JUMPDEST JUMP JUMPDEST SWAP1 SWAP4 SWAP2 POP PUSH1 0x0 MSTORE PUSH1 0x20 SWAP1 DUP2 PUSH1 0x0 KECCAK256 SWAP4 PUSH1 0x0 SWAP2 JUMPDEST DUP2 DUP4 LT PUSH2 0x1D5C JUMPI POP POP PUSH2 0x1D2F SWAP4 POP DUP3 ADD ADD CODESIZE DUP1 PUSH2 0x1D21 JUMP JUMPDEST DUP6 SLOAD DUP9 DUP5 ADD DUP6 ADD MSTORE SWAP5 DUP6 ADD SWAP5 DUP8 SWAP5 POP SWAP2 DUP4 ADD SWAP2 PUSH2 0x1D44 JUMP JUMPDEST SWAP2 POP POP PUSH2 0x1D2F SWAP5 POP PUSH1 0x20 SWAP3 POP PUSH1 0xFF NOT AND DUP3 DUP5 ADD MSTORE ISZERO ISZERO PUSH1 0x5 SHL DUP3 ADD ADD CODESIZE DUP1 PUSH2 0x1D21 JUMP JUMPDEST ISZERO PUSH2 0x1D9E JUMPI JUMP JUMPDEST PUSH1 0x40 MLOAD PUSH3 0x461BCD PUSH1 0xE5 SHL DUP2 MSTORE PUSH1 0x20 PUSH1 0x4 DUP3 ADD MSTORE PUSH1 0x12 PUSH1 0x24 DUP3 ADD MSTORE PUSH18 0x10DBDB9D1C9858DD081A5CC81C185D5CD959 PUSH1 0x72 SHL PUSH1 0x44 DUP3 ADD MSTORE PUSH1 0x64 SWAP1 REVERT JUMPDEST ISZERO PUSH2 0x1DDF JUMPI JUMP JUMPDEST PUSH1 0x40 MLOAD PUSH3 0x461BCD PUSH1 0xE5 SHL DUP2 MSTORE PUSH1 0x20 PUSH1 0x4 DUP3 ADD MSTORE PUSH1 0xE PUSH1 0x24 DUP3 ADD MSTORE PUSH14 0x1499595B9D1C985B9D0818D85B1B PUSH1 0x92 SHL PUSH1 0x44 DUP3 ADD MSTORE PUSH1 0x64 SWAP1 REVERT JUMPDEST ISZERO PUSH2 0x1E1C JUMPI JUMP JUMPDEST PUSH1 0x40 MLOAD PUSH3 0x461BCD PUSH1 0xE5 SHL DUP2 MSTORE PUSH1 0x20 PUSH1 0x4 DUP3 ADD MSTORE PUSH1 0x13 PUSH1 0x24 DUP3 ADD MSTORE PUSH19 0x155CD95C881B9BDD081C9959DA5CDD195C9959 PUSH1 0x6A SHL PUSH1 0x44 DUP3 ADD MSTORE PUSH1 0x64 SWAP1 REVERT JUMPDEST SWAP2 SWAP1 DUP3 ADD DUP1 SWAP3 GT PUSH2 0x7D8 JUMPI JUMP JUMPDEST ISZERO PUSH2 0x1E6B JUMPI JUMP JUMPDEST PUSH1 0x40 MLOAD PUSH3 0x461BCD PUSH1 0xE5 SHL DUP2 MSTORE PUSH1 0x20 PUSH1 0x4 DUP3 ADD MSTORE PUSH1 0x1B PUSH1 0x24 DUP3 ADD MSTORE PUSH32 0x496E73756666696369656E7420706F6F6C206C69717569646974790000000000 PUSH1 0x44 DUP3 ADD MSTORE PUSH1 0x64 SWAP1 REVERT JUMPDEST SWAP2 SWAP1 DUP3 SUB SWAP2 DUP3 GT PUSH2 0x7D8 JUMPI JUMP JUMPDEST ISZERO PUSH2 0x1EC4 JUMPI JUMP JUMPDEST PUSH1 0x40 MLOAD PUSH3 0x461BCD PUSH1 0xE5 SHL DUP2 MSTORE PUSH1 0x20 PUSH1 0x4 DUP3 ADD MSTORE PUSH1 0x21 PUSH1 0x24 DUP3 ADD MSTORE PUSH32 0x4F6E6C79206F776E65722063616E2063616C6C20746869732066756E6374696F PUSH1 0x44 DUP3 ADD MSTORE PUSH1 0x37 PUSH1 0xF9 SHL PUSH1 0x64 DUP3 ADD MSTORE PUSH1 0x84 SWAP1 REVERT JUMPDEST ISZERO PUSH2 0x1F1A JUMPI JUMP JUMPDEST PUSH1 0x40 MLOAD PUSH3 0x461BCD PUSH1 0xE5 SHL DUP2 MSTORE PUSH1 0x20 PUSH1 0x4 DUP3 ADD MSTORE PUSH1 0x13 PUSH1 0x24 DUP3 ADD MSTORE PUSH19 0x496E76616C6964206C6F616E20737461747573 PUSH1 0x68 SHL PUSH1 0x44 DUP3 ADD MSTORE PUSH1 0x64 SWAP1 REVERT JUMPDEST PUSH1 0x1 PUSH1 0x1 PUSH1 0xA0 SHL SUB AND PUSH1 0x0 SWAP1 DUP2 MSTORE PUSH1 0x6 PUSH1 0x20 MSTORE PUSH1 0x40 SWAP1 KECCAK256 SLOAD PUSH2 0x320 DUP2 LT PUSH2 0x1F83 JUMPI POP PUSH8 0x8AC7230489E80000 SWAP1 JUMP JUMPDEST PUSH2 0x258 DUP2 LT PUSH2 0x1F99 JUMPI POP PUSH8 0x16345785D8A0000 SWAP1 JUMP JUMPDEST PUSH2 0x190 DUP2 LT PUSH2 0x1FAE JUMPI POP PUSH7 0xB1A2BC2EC50000 SWAP1 JUMP JUMPDEST PUSH1 0xC8 GT PUSH2 0x1FC0 JUMPI PUSH7 0x58D15E17628000 SWAP1 JUMP JUMPDEST PUSH7 0x11C37937E08000 SWAP1 JUMP JUMPDEST CALLER PUSH1 0x0 MSTORE PUSH1 0x9 PUSH1 0x20 MSTORE PUSH1 0x40 PUSH1 0x0 KECCAK256 PUSH2 0x1FE4 CALLVALUE DUP3 SLOAD PUSH2 0x1E57 JUMP JUMPDEST SWAP1 SSTORE PUSH2 0x1FF2 CALLVALUE PUSH1 0x1 SLOAD PUSH2 0x1E57 JUMP JUMPDEST PUSH1 0x1 SSTORE PUSH1 0x40 MLOAD CALLVALUE DUP2 MSTORE TIMESTAMP PUSH1 0x20 DUP3 ADD MSTORE PUSH32 0x73A19DD210F1A7F902193214C0EE91DD35EE5B4D920CBA8D519ECA65A7B488CA PUSH1 0x40 CALLER SWAP3 LOG2 JUMP INVALID 0xC1 STOP STOP CREATE 0xEA SUB SHR RETURNDATACOPY DUP13 CALLVALUE 0xF8 TIMESTAMP 0xD9 CALLDATACOPY JUMP GT 0x2F DUP16 0xA7 CALLDATACOPY LOG3 EQ 0xE 0x49 0x21 0xED SWAP4 KECCAK256 PUSH8 0xF42D6AA264697066 PUSH20 0x58221220577E0EC8D44D38AC41E6F6A4417E2D0F 0x23 SWAP4 DELEGATECALL 0x2E LT SWAP6 PUSH5 0x3EED092EE3 0x25 0xF6 0xC0 0xB6 PUSH5 0x736F6C6343 STOP ADDMOD SGT STOP CALLER "},"methodIdentifiers":{"BASE_INTEREST_RATE()":"0d8cb2ff","GRACE_PERIOD()":"c1a287e2","INITIAL_CREDIT_SCORE()":"c293195b","MAX_ACTIVE_LOANS_PER_USER()":"83e8cb4f","MAX_CREDIT_SCORE()":"54203e09","MAX_DEPOSIT()":"dd5967c3","MAX_LOAN()":"61755432","MIN_DEPOSIT()":"e1e158a5","MIN_LOAN()":"6b7dba65","approveLoan(uint256)":"aadc1ac1","checkDefault(uint256)":"759135a1","deposit()":"d0e30db0","getAvailableLiquidity()":"9b745aec","getLoanDetails(uint256)":"66877b8d","getMaxLoanAmount(address)":"ad73f38e","getSystemStats()":"d1ce59a7","getUserLoans(address)":"02bf321f","getUserStats(address)":"4e43603a","loans(uint256)":"e1ec3c68","nextLoanId()":"87c51459","owner()":"8da5cb5b","pause()":"8456cb59","paused()":"5c975abb","register()":"1aa3a008","repayLoan(uint256)":"ab7b1c89","requestLoan(uint256,uint256,string)":"d3602dc6","totalActiveLoans()":"dc63af41","totalPoolBalance()":"5026d63e","totalRepaidAmount()":"891369b2","unpause()":"3f4ba83a","userDeposits(address)":"0ba36dcd","userLoans(address,uint256)":"d8bad5bd","users(address)":"a87430ba","withdraw(uint256)":"2e1a7d4d"}}}}}