{
  "_format": "hh-sol-artifact-1",
  "contractName": "EthiopianMicrofinanceSimple",
  "sourceName": "contracts/EthiopianMicrofinanceSimple.sol",
  "abi": [
    {
      "inputs": [],
      "stateMutability": "nonpayable",
      "type": "constructor"
    },
    {
      "anonymous": false,
      "inputs": [
        {
          "indexed": true,
          "internalType": "address",
          "name": "user",
          "type": "address"
        },
        {
          "indexed": false,
          "internalType": "uint256",
          "name": "oldScore",
          "type": "uint256"
        },
        {
          "indexed": false,
          "internalType": "uint256",
          "name": "newScore",
          "type": "uint256"
        }
      ],
      "name": "CreditScoreUpdated",
      "type": "event"
    },
    {
      "anonymous": false,
      "inputs": [
        {
          "indexed": true,
          "internalType": "address",
          "name": "user",
          "type": "address"
        },
        {
          "indexed": false,
          "internalType": "uint256",
          "name": "amount",
          "type": "uint256"
        },
        {
          "indexed": false,
          "internalType": "uint256",
          "name": "timestamp",
          "type": "uint256"
        }
      ],
      "name": "Deposited",
      "type": "event"
    },
    {
      "anonymous": false,
      "inputs": [
        {
          "indexed": true,
          "internalType": "uint256",
          "name": "loanId",
          "type": "uint256"
        },
        {
          "indexed": false,
          "internalType": "uint256",
          "name": "startTime",
          "type": "uint256"
        }
      ],
      "name": "LoanActive",
      "type": "event"
    },
    {
      "anonymous": false,
      "inputs": [
        {
          "indexed": true,
          "internalType": "uint256",
          "name": "loanId",
          "type": "uint256"
        },
        {
          "indexed": false,
          "internalType": "uint256",
          "name": "amount",
          "type": "uint256"
        }
      ],
      "name": "LoanApproved",
      "type": "event"
    },
    {
      "anonymous": false,
      "inputs": [
        {
          "indexed": true,
          "internalType": "uint256",
          "name": "loanId",
          "type": "uint256"
        },
        {
          "indexed": false,
          "internalType": "uint256",
          "name": "totalRepaid",
          "type": "uint256"
        }
      ],
      "name": "LoanCompleted",
      "type": "event"
    },
    {
      "anonymous": false,
      "inputs": [
        {
          "indexed": true,
          "internalType": "uint256",
          "name": "loanId",
          "type": "uint256"
        }
      ],
      "name": "LoanDefaulted",
      "type": "event"
    },
    {
      "anonymous": false,
      "inputs": [
        {
          "indexed": true,
          "internalType": "uint256",
          "name": "loanId",
          "type": "uint256"
        },
        {
          "indexed": true,
          "internalType": "address",
          "name": "borrower",
          "type": "address"
        },
        {
          "indexed": false,
          "internalType": "uint256",
          "name": "amount",
          "type": "uint256"
        },
        {
          "indexed": false,
          "internalType": "string",
          "name": "purpose",
          "type": "string"
        }
      ],
      "name": "LoanRequested",
      "type": "event"
    },
    {
      "anonymous": false,
      "inputs": [
        {
          "indexed": false,
          "internalType": "uint256",
          "name": "totalBalance",
          "type": "uint256"
        },
        {
          "indexed": false,
          "internalType": "uint256",
          "name": "activeLoans",
          "type": "uint256"
        },
        {
          "indexed": false,
          "internalType": "uint256",
          "name": "timestamp",
          "type": "uint256"
        }
      ],
      "name": "PoolStatsUpdated",
      "type": "event"
    },
    {
      "anonymous": false,
      "inputs": [
        {
          "indexed": true,
          "internalType": "uint256",
          "name": "loanId",
          "type": "uint256"
        },
        {
          "indexed": true,
          "internalType": "address",
          "name": "borrower",
          "type": "address"
        },
        {
          "indexed": false,
          "internalType": "uint256",
          "name": "amount",
          "type": "uint256"
        }
      ],
      "name": "RepaymentMade",
      "type": "event"
    },
    {
      "anonymous": false,
      "inputs": [
        {
          "indexed": true,
          "internalType": "address",
          "name": "user",
          "type": "address"
        },
        {
          "indexed": false,
          "internalType": "uint256",
          "name": "timestamp",
          "type": "uint256"
        }
      ],
      "name": "UserRegistered",
      "type": "event"
    },
    {
      "anonymous": false,
      "inputs": [
        {
          "indexed": true,
          "internalType": "address",
          "name": "user",
          "type": "address"
        },
        {
          "indexed": false,
          "internalType": "uint256",
          "name": "amount",
          "type": "uint256"
        },
        {
          "indexed": false,
          "internalType": "uint256",
          "name": "timestamp",
          "type": "uint256"
        }
      ],
      "name": "Withdrawn",
      "type": "event"
    },
    {
      "stateMutability": "payable",
      "type": "fallback"
    },
    {
      "inputs": [],
      "name": "BASE_INTEREST_RATE",
      "outputs": [
        {
          "internalType": "uint256",
          "name": "",
          "type": "uint256"
        }
      ],
      "stateMutability": "view",
      "type": "function"
    },
    {
      "inputs": [],
      "name": "GRACE_PERIOD",
      "outputs": [
        {
          "internalType": "uint256",
          "name": "",
          "type": "uint256"
        }
      ],
      "stateMutability": "view",
      "type": "function"
    },
    {
      "inputs": [],
      "name": "INITIAL_CREDIT_SCORE",
      "outputs": [
        {
          "internalType": "uint256",
          "name": "",
          "type": "uint256"
        }
      ],
      "stateMutability": "view",
      "type": "function"
    },
    {
      "inputs": [],
      "name": "MAX_ACTIVE_LOANS_PER_USER",
      "outputs": [
        {
          "internalType": "uint256",
          "name": "",
          "type": "uint256"
        }
      ],
      "stateMutability": "view",
      "type": "function"
    },
    {
      "inputs": [],
      "name": "MAX_CREDIT_SCORE",
      "outputs": [
        {
          "internalType": "uint256",
          "name": "",
          "type": "uint256"
        }
      ],
      "stateMutability": "view",
      "type": "function"
    },
    {
      "inputs": [],
      "name": "MAX_DEPOSIT",
      "outputs": [
        {
          "internalType": "uint256",
          "name": "",
          "type": "uint256"
        }
      ],
      "stateMutability": "view",
      "type": "function"
    },
    {
      "inputs": [],
      "name": "MAX_LOAN",
      "outputs": [
        {
          "internalType": "uint256",
          "name": "",
          "type": "uint256"
        }
      ],
      "stateMutability": "view",
      "type": "function"
    },
    {
      "inputs": [],
      "name": "MIN_DEPOSIT",
      "outputs": [
        {
          "internalType": "uint256",
          "name": "",
          "type": "uint256"
        }
      ],
      "stateMutability": "view",
      "type": "function"
    },
    {
      "inputs": [],
      "name": "MIN_LOAN",
      "outputs": [
        {
          "internalType": "uint256",
          "name": "",
          "type": "uint256"
        }
      ],
      "stateMutability": "view",
      "type": "function"
    },
    {
      "inputs": [
        {
          "internalType": "uint256",
          "name": "loanId",
          "type": "uint256"
        }
      ],
      "name": "approveLoan",
      "outputs": [],
      "stateMutability": "nonpayable",
      "type": "function"
    },
    {
      "inputs": [
        {
          "internalType": "uint256",
          "name": "loanId",
          "type": "uint256"
        }
      ],
      "name": "checkDefault",
      "outputs": [],
      "stateMutability": "nonpayable",
      "type": "function"
    },
    {
      "inputs": [],
      "name": "deposit",
      "outputs": [],
      "stateMutability": "payable",
      "type": "function"
    },
    {
      "inputs": [],
      "name": "getAvailableLiquidity",
      "outputs": [
        {
          "internalType": "uint256",
          "name": "",
          "type": "uint256"
        }
      ],
      "stateMutability": "view",
      "type": "function"
    },
    {
      "inputs": [
        {
          "internalType": "uint256",
          "name": "loanId",
          "type": "uint256"
        }
      ],
      "name": "getLoanDetails",
      "outputs": [
        {
          "internalType": "address",
          "name": "borrower",
          "type": "address"
        },
        {
          "internalType": "uint256",
          "name": "amount",
          "type": "uint256"
        },
        {
          "internalType": "uint256",
          "name": "interestRate",
          "type": "uint256"
        },
        {
          "internalType": "uint256",
          "name": "duration",
          "type": "uint256"
        },
        {
          "internalType": "uint256",
          "name": "startTime",
          "type": "uint256"
        },
        {
          "internalType": "uint256",
          "name": "endTime",
          "type": "uint256"
        },
        {
          "internalType": "uint256",
          "name": "amountRepaid",
          "type": "uint256"
        },
        {
          "internalType": "uint256",
          "name": "totalOwed",
          "type": "uint256"
        },
        {
          "internalType": "enum EthiopianMicrofinanceSimple.LoanStatus",
          "name": "status",
          "type": "uint8"
        },
        {
          "internalType": "string",
          "name": "purpose",
          "type": "string"
        },
        {
          "internalType": "uint256",
          "name": "created",
          "type": "uint256"
        }
      ],
      "stateMutability": "view",
      "type": "function"
    },
    {
      "inputs": [
        {
          "internalType": "address",
          "name": "user",
          "type": "address"
        }
      ],
      "name": "getMaxLoanAmount",
      "outputs": [
        {
          "internalType": "uint256",
          "name": "",
          "type": "uint256"
        }
      ],
      "stateMutability": "view",
      "type": "function"
    },
    {
      "inputs": [],
      "name": "getSystemStats",
      "outputs": [
        {
          "internalType": "uint256",
          "name": "totalBalance",
          "type": "uint256"
        },
        {
          "internalType": "uint256",
          "name": "activeLoans",
          "type": "uint256"
        },
        {
          "internalType": "uint256",
          "name": "totalRepaid",
          "type": "uint256"
        },
        {
          "internalType": "uint256",
          "name": "totalUsers",
          "type": "uint256"
        }
      ],
      "stateMutability": "view",
      "type": "function"
    },
    {
      "inputs": [
        {
          "internalType": "address",
          "name": "user",
          "type": "address"
        }
      ],
      "name": "getUserLoans",
      "outputs": [
        {
          "internalType": "uint256[]",
          "name": "",
          "type": "uint256[]"
        }
      ],
      "stateMutability": "view",
      "type": "function"
    },
    {
      "inputs": [
        {
          "internalType": "address",
          "name": "user",
          "type": "address"
        }
      ],
      "name": "getUserStats",
      "outputs": [
        {
          "internalType": "uint256",
          "name": "creditScore",
          "type": "uint256"
        },
        {
          "internalType": "uint256",
          "name": "totalBorrowed",
          "type": "uint256"
        },
        {
          "internalType": "uint256",
          "name": "totalRepaid",
          "type": "uint256"
        },
        {
          "internalType": "uint256",
          "name": "activeLoans",
          "type": "uint256"
        },
        {
          "internalType": "uint256",
          "name": "completedLoans",
          "type": "uint256"
        },
        {
          "internalType": "uint256",
          "name": "defaultedLoans",
          "type": "uint256"
        },
        {
          "internalType": "uint256",
          "name": "depositBalance",
          "type": "uint256"
        },
        {
          "internalType": "uint256",
          "name": "maxLoanAmount",
          "type": "uint256"
        }
      ],
      "stateMutability": "view",
      "type": "function"
    },
    {
      "inputs": [
        {
          "internalType": "uint256",
          "name": "",
          "type": "uint256"
        }
      ],
      "name": "loans",
      "outputs": [
        {
          "internalType": "uint256",
          "name": "id",
          "type": "uint256"
        },
        {
          "internalType": "address",
          "name": "borrower",
          "type": "address"
        },
        {
          "internalType": "uint256",
          "name": "amount",
          "type": "uint256"
        },
        {
          "internalType": "uint256",
          "name": "interestRate",
          "type": "uint256"
        },
        {
          "internalType": "uint256",
          "name": "duration",
          "type": "uint256"
        },
        {
          "internalType": "uint256",
          "name": "startTime",
          "type": "uint256"
        },
        {
          "internalType": "uint256",
          "name": "endTime",
          "type": "uint256"
        },
        {
          "internalType": "uint256",
          "name": "amountRepaid",
          "type": "uint256"
        },
        {
          "internalType": "uint256",
          "name": "totalOwed",
          "type": "uint256"
        },
        {
          "internalType": "enum EthiopianMicrofinanceSimple.LoanStatus",
          "name": "status",
          "type": "uint8"
        },
        {
          "internalType": "string",
          "name": "purpose",
          "type": "string"
        },
        {
          "internalType": "uint256",
          "name": "created",
          "type": "uint256"
        }
      ],
      "stateMutability": "view",
      "type": "function"
    },
    {
      "inputs": [],
      "name": "nextLoanId",
      "outputs": [
        {
          "internalType": "uint256",
          "name": "",
          "type": "uint256"
        }
      ],
      "stateMutability": "view",
      "type": "function"
    },
    {
      "inputs": [],
      "name": "owner",
      "outputs": [
        {
          "internalType": "address",
          "name": "",
          "type": "address"
        }
      ],
      "stateMutability": "view",
      "type": "function"
    },
    {
      "inputs": [],
      "name": "pause",
      "outputs": [],
      "stateMutability": "nonpayable",
      "type": "function"
    },
    {
      "inputs": [],
      "name": "paused",
      "outputs": [
        {
          "internalType": "bool",
          "name": "",
          "type": "bool"
        }
      ],
      "stateMutability": "view",
      "type": "function"
    },
    {
      "inputs": [],
      "name": "register",
      "outputs": [],
      "stateMutability": "nonpayable",
      "type": "function"
    },
    {
      "inputs": [
        {
          "internalType": "uint256",
          "name": "loanId",
          "type": "uint256"
        }
      ],
      "name": "repayLoan",
      "outputs": [],
      "stateMutability": "payable",
      "type": "function"
    },
    {
      "inputs": [
        {
          "internalType": "uint256",
          "name": "amount",
          "type": "uint256"
        },
        {
          "internalType": "uint256",
          "name": "duration",
          "type": "uint256"
        },
        {
          "internalType": "string",
          "name": "purpose",
          "type": "string"
        }
      ],
      "name": "requestLoan",
      "outputs": [
        {
          "internalType": "uint256",
          "name": "",
          "type": "uint256"
        }
      ],
      "stateMutability": "nonpayable",
      "type": "function"
    },
    {
      "inputs": [],
      "name": "totalActiveLoans",
      "outputs": [
        {
          "internalType": "uint256",
          "name": "",
          "type": "uint256"
        }
      ],
      "stateMutability": "view",
      "type": "function"
    },
    {
      "inputs": [],
      "name": "totalPoolBalance",
      "outputs": [
        {
          "internalType": "uint256",
          "name": "",
          "type": "uint256"
        }
      ],
      "stateMutability": "view",
      "type": "function"
    },
    {
      "inputs": [],
      "name": "totalRepaidAmount",
      "outputs": [
        {
          "internalType": "uint256",
          "name": "",
          "type": "uint256"
        }
      ],
      "stateMutability": "view",
      "type": "function"
    },
    {
      "inputs": [],
      "name": "unpause",
      "outputs": [],
      "stateMutability": "nonpayable",
      "type": "function"
    },
    {
      "inputs": [
        {
          "internalType": "address",
          "name": "",
          "type": "address"
        }
      ],
      "name": "userDeposits",
      "outputs": [
        {
          "internalType": "uint256",
          "name": "",
          "type": "uint256"
        }
      ],
      "stateMutability": "view",
      "type": "function"
    },
    {
      "inputs": [
        {
          "internalType": "address",
          "name": "",
          "type": "address"
        },
        {
          "internalType": "uint256",
          "name": "",
          "type": "uint256"
        }
      ],
      "name": "userLoans",
      "outputs": [
        {
          "internalType": "uint256",
          "name": "",
          "type": "uint256"
        }
      ],
      "stateMutability": "view",
      "type": "function"
    },
    {
      "inputs": [
        {
          "internalType": "address",
          "name": "",
          "type": "address"
        }
      ],
      "name": "users",
      "outputs": [
        {
          "internalType": "uint256",
          "name": "creditScore",
          "type": "uint256"
        },
        {
          "internalType": "uint256",
          "name": "totalBorrowed",
          "type": "uint256"
        },
        {
          "internalType": "uint256",
          "name": "totalRepaid",
          "type": "uint256"
        },
        {
          "internalType": "uint256",
          "name": "activeLoans",
          "type": "uint256"
        },
        {
          "internalType": "uint256",
          "name": "completedLoans",
          "type": "uint256"
        },
        {
          "internalType": "uint256",
          "name": "defaultedLoans",
          "type": "uint256"
        },
        {
          "internalType": "bool",
          "name": "isRegistered",
          "type": "bool"
        },
        {
          "internalType": "uint256",
          "name": "lastActivity",
          "type": "uint256"
        }
      ],
      "stateMutability": "view",
      "type": "function"
    },
    {
      "inputs": [
        {
          "internalType": "uint256",
          "name": "amount",
          "type": "uint256"
        }
      ],
      "name": "withdraw",
      "outputs": [],
      "stateMutability": "nonpayable",
      "type": "function"
    },
    {
      "stateMutability": "payable",
      "type": "receive"
    }
  ],
  "bytecode": "0x60803461010557600080546001600160a01b0319163317815561010082016001600160401b038111838210176100f157906007916040526101f48352602083018181526040840182815260608501838152608086019084825260a087019285845260c088019460018652604060e08a019742895233815260066020522098518955516001890155516002880155516003870155516004860155516005850155600684019051151560ff80198354169116179055519101556040514281527fe29d35093005f4d575e1003753426b57a7f64378ba73332eef9c6ccc2b8decd660203392a260405161207f908161010b8239f35b634e487b7160e01b82526041600452602482fd5b600080fdfe6080806040526004361015610028575b5036156100205761001e611fcb565b005b61001e611fcb565b60003560e01c90816302bf321f14611afd575080630ba36dcd14611ac35780630d8cb2ff14610ad35780631aa3a008146119825780632e1a7d4d146117fd5780633f4ba83a146117cb5780634e43603a146116ec5780635026d63e146111ef57806354203e09146116cf5780635c975abb146116ac578063617554321461168957806366877b8d146115185780636b7dba65146114f6578063759135a1146112c357806383e8cb4f146112a75780638456cb591461127257806387c5145914611254578063891369b2146112365780638da5cb5b1461120d5780639b745aec146111ef578063a87430ba14611163578063aadc1ac114610f3b578063ab7b1c8914610b21578063ad73f38e14610af6578063c1a287e214610ad8578063c293195b14610ad3578063d0e30db01461093c578063d1ce59a714610906578063d3602dc61461033f578063d8bad5bd146102e7578063dc63af41146102c9578063dd5967c3146102a5578063e1e158a5146102835763e1ec3c68146101ab573861000f565b3461027e57602036600319011261027e5760043560005260076020526020604060002080549061027360018060a01b0360018301541691610261600282015460038301546004840154600585015460068601549060078701549260088801549460ff60098a01541696600b610222600a8c01611cf1565b9a01549b6040519e8f9e8f908152015260408d015260608c015260808b015260a08a015260c089015260e0880152610100870152610120860190611be0565b61018080610140860152840190611bed565b906101608301520390f35b600080fd5b3461027e57600036600319011261027e57602060405166038d7ea4c680008152f35b3461027e57600036600319011261027e57602060405168056bc75e2d631000008152f35b3461027e57600036600319011261027e576020600254604051908152f35b3461027e57604036600319011261027e57610300611bad565b6001600160a01b031660009081526008602052604090208054602435919082101561027e5760209161033191611c89565b90546040519160031b1c8152f35b3461027e57606036600319011261027e5760443567ffffffffffffffff811161027e573660238201121561027e57806004013567ffffffffffffffff81116106e65760405191610399601f8301601f191660200184611c67565b818352366024838301011161027e578160009260246020930183860137830101526103c960ff6005541615611d97565b6001600a546103db60ff821615611dd8565b60ff191617600a5533600052600660205261040060ff60066040600020015416611e15565b6611c37937e080006004351015806108f2575b156108b75762278d006024351015806108a8575b1561087057336000526006602052600260036040600020015410156108335761044f33611f55565b600435116107ee576104676001546004351115611e64565b60045460001981146107d857600181016004556101f46004350260043581046101f4146004351517156107d857806101f460243560043502020460243514901517156107d8576104ca64496cebb8006101f4602435600435020204600435611e57565b604051906104d782611c4a565b82825233602083015260043560408301526101f460608301526024356080830152600060a0830152600060c0830152600060e083015261010082015260006101208201528261014082015242610160820152816000526007602052604060002090805182556001820160018060a01b036020830151166bffffffffffffffffffffffff60a01b82541617905560408101516002830155606081015160038301556080810151600483015560a0810151600583015560c0810151600683015560e0810151600783015561010081015160088301556009820161012082015160068110156107c25760ff8019835416911617905561014081015180519067ffffffffffffffff82116106e6576105ee600a850154611cb7565b601f811161077b575b50602090601f8311600114610707579180600b9492610160946000926106fc575b50508160011b916000199060031b1c191617600a8501555b0151910155336000526008602052604060002091825492680100000000000000008410156106e6578361066a916001602096018155611c89565b81549060031b9084821b91600019901b1916179055336000526006835242600760406000200155817ffbba0893dd1f941cb4a7bb791aed3ce1ad2a008c20ef3254b2a2cf7752b199f16040516004358152604086820152806106d133956040830190611bed565b0390a360ff19600a5416600a55604051908152f35b634e487b7160e01b600052604160045260246000fd5b015190508880610618565b90601f19831691600a860160005260206000209260005b818110610763575092600192859261016096600b98961061074a575b505050811b01600a850155610630565b015160001960f88460031b161c1916905588808061073a565b9293602060018192878601518155019501930161071e565b600a85016000526020600020601f840160051c8101602085106107bb575b601f830160051c820181106107af5750506105f7565b60008155600101610799565b5080610799565b634e487b7160e01b600052602160045260246000fd5b634e487b7160e01b600052601160045260246000fd5b60405162461bcd60e51b815260206004820152601b60248201527f416d6f756e74206578636565647320637265646974206c696d697400000000006044820152606490fd5b60405162461bcd60e51b8152602060048201526015602482015274546f6f206d616e7920616374697665206c6f616e7360581b6044820152606490fd5b60405162461bcd60e51b815260206004820152601060248201526f24b73b30b634b210323ab930ba34b7b760811b6044820152606490fd5b5062ed4e006024351115610427565b60405162461bcd60e51b8152602060048201526013602482015272125b9d985b1a59081b1bd85b88185b5bdd5b9d606a1b6044820152606490fd5b50678ac7230489e800006004351115610413565b3461027e57600036600319011261027e576080600154600254600354906040519283526020830152604082015260006060820152f35b600036600319011261027e5761095760ff6005541615611d97565b600a5461096760ff821615611dd8565b600160ff1980921617600a553360005260206006815261099160ff60066040600020015416611e15565b66038d7ea4c680003410610a975768056bc75e2d631000003411610a5b57336000526009815260406000206109c7348254611e57565b90556109d534600154611e57565b6001553360005260068152426007604060002001556040519034825242908201527f73a19dd210f1a7f902193214c0ee91dd35ee5b4d920cba8d519eca65a7b488ca60403392a2600154600254604080519283526020830191909152429082015260008051602061202a8339815191529080606081015b0390a1600a5416600a55600080f35b6064906040519062461bcd60e51b82526004820152601560248201527410589bdd99481b585e1a5b5d5b4819195c1bdcda5d605a1b6044820152fd5b6064906040519062461bcd60e51b82526004820152601560248201527410995b1bddc81b5a5b9a5b5d5b4819195c1bdcda5d605a1b6044820152fd5b611bc3565b3461027e57600036600319011261027e57602060405162093a808152f35b3461027e57602036600319011261027e576020610b19610b14611bad565b611f55565b604051908152f35b60208060031936011261027e57600435610b4060ff6005541615611d97565b600a91825491610b5360ff841615611dd8565b6001908160ff198095161785558060005260079283815260ff6009604060002001541693600694858110156107c25784148015610f17575b610b9490611f13565b6000838152818352604090208401546001600160a01b039081163303610ede573415610ea557836000528183526040600020600881019081549084810191610bde83548092611eb0565b3411610e605790610bf26009923490611e57565b8355610c0034600354611e57565b600355610c0e348a54611e57565b8955336000528987526002604060002001610c2a348254611e57565b90553360005289875242866040600020015501805460ff81168a8110156107c257898c9114610e52575b505050604051348152867f8138c96768bd65e56a78ccd77b0836274962d9e184373c9da955793ac8e4ad22873393a35490541115610ccf575b878760008051602061202a8339815191528754600254610cc56040519283924291846040919493926060820195825260208201520152565b0390a18154169055005b83600052818352604060002090600982016003898254161790558582015416958660005280845260036040600020018054600019918282019182116107d857558760005281855260046040600020018054908882018092116107d857556002549081019081116107d85760025586600052835260406000209586549687603290600483015480158015610e06575b505060008051602061202a833981519152997f03d7f456a773b484d2552719bd744b62049588737d6a02948eba3dcae1b0d77f9796959493610dc27f4f43648f37bc26ee5bc39c60c1c1e2481a9fb9feb9f86419c91b4645585ff3bc94604094611e57565b6103e8808211610dfe575b5060648110610df6575b809155825191825287820152a20154604051908152a284808080610c8d565b506064610dd7565b90508f610dcd565b8d80839a999897969a029283041417156107d85782018092116107d8579495939492939192897f03d7f456a773b484d2552719bd744b62049588737d6a02948eba3dcae1b0d77f610d5d565b1660021790558a808a610c54565b60405162461bcd60e51b815260048101889052601760248201527f5061796d656e7420657863656564732062616c616e63650000000000000000006044820152606490fd5b60405162461bcd60e51b8152600481018490526011602482015270139bc81c185e5b595b9d08185b5bdd5b9d607a1b6044820152606490fd5b60405162461bcd60e51b81526004810184905260116024820152702737ba103637b0b7103137b93937bbb2b960791b6044820152606490fd5b508260005280825260ff60096040600020015416858110156107c257600214610b8b565b3461027e5760208060031936011261027e57600054600435916001600160a01b0391610f6a9083163314611ebd565b600a5492610f7b60ff851615611dd8565b6001918260ff1980961617600a55816000526007815260ff6009604060002001541660068110156107c257610fb09015611f13565b825482600052600782526002604060002001541161112657816000526007815260406000209060098201848782541617905560026005830195428755610ffa600485015442611e57565b600685015585840154169201918254816000526006835261102386604060002001918254611e57565b9055806000526006825260036040600020018054908682018092116107d857558060005260068252426007604060002001556002548581018091116107d8576000808093819360025561107887548a54611eb0565b895586549082821561111d575bf1156111115760008051602061202a83398151915294837e25a2d6ca1b3da40a46ecc2c7ecbddb416fe7180003a0155b7e7d782d895f21837fbdb65d47867316d2084743d0502e9c6653d9ac7d35cc591028f1f32fbe0028e69554604051908152a254604051908152a25460025460408051928352602083019190915242908201528060608101610a4c565b6040513d6000823e3d90fd5b506108fc611085565b6064906040519062461bcd60e51b825260048201526016602482015275496e73756666696369656e74206c697175696469747960501b6044820152fd5b3461027e57602036600319011261027e576001600160a01b03611184611bad565b166000526006602052610100604060002080549060018101549060028101546003820154600483015490600584015492600760ff60068701541695015495604051978852602088015260408701526060860152608085015260a0840152151560c083015260e0820152f35b3461027e57600036600319011261027e576020600154604051908152f35b3461027e57600036600319011261027e576000546040516001600160a01b039091168152602090f35b3461027e57600036600319011261027e576020600354604051908152f35b3461027e57600036600319011261027e576020600454604051908152f35b3461027e57600036600319011261027e5761129860018060a01b03600054163314611ebd565b6005805460ff19166001179055005b3461027e57600036600319011261027e57602060405160028152f35b3461027e5760208060031936011261027e57600435908160005260079081815260ff6009604060002001541691600692838110156107c25760011480156114d2575b61130e90611f13565b83600052808252826040600020015462093a8081018091116107d85742111561149557836000528082526040600020600882820154910154111561145a576000848152908252604080822060098101805460ff19166004179055600101546001600160a01b031680835284845291206003018054919391600019918282019182116107d85755836000528183526005604060002001805490600182018092116107d857556002549081019081116107d857600255826000528152604060002080548060631981019081116107d8577f4f43648f37bc26ee5bc39c60c1c1e2481a9fb9feb9f86419c91b4645585ff3bc936040936103e8808411611452575b5060648310611449575b8290558351928352820152a27f0789b7097e8066538cfaa1132488b132e14ba5f0c938c8b7aaf8cf40356aab0b600080a2005b60649250611416565b92508861140c565b60405162461bcd60e51b8152600481018390526013602482015272131bd85b88185b1c9958591e481c995c185a59606a1b6044820152606490fd5b60405162461bcd60e51b815260048101839052601560248201527423b930b1b2903832b934b7b2103737ba1037bb32b960591b6044820152606490fd5b508360005280825260ff60096040600020015416838110156107c257600214611305565b3461027e57600036600319011261027e5760206040516611c37937e080008152f35b3461027e57602036600319011261027e57600435600052600760205260406000206040519061154682611c4a565b8054825260018101546001600160a01b03166020830152600281015460408301526003810154606083015260048101546080830152600581015460a083015260068082015460c0840152600782015460e08401526008820154610100840152600982015460ff1691908210156107c257600b916101208401526115cb600a8201611cf1565b610140840152015461016082015260018060a01b0360208201511660408201519160608101519060808101519060a08101519160c082015160e0830151610100840151906101208501519260068410156107c25761167e9661166a95610160610140890151980151996040519c8d9c8d5260208d015260408c015260608b015260808a015260a089015260c088015260e0870152610100860190611be0565b610160610120850152610160840190611bed565b906101408301520390f35b3461027e57600036600319011261027e576020604051678ac7230489e800008152f35b3461027e57600036600319011261027e57602060ff600554166040519015158152f35b3461027e57600036600319011261027e5760206040516103e88152f35b3461027e57602036600319011261027e57610100611708611bad565b6001600160a01b038116600081815260066020526040908190209051929061172f84611c2d565b805493848152600182015493846020830152600283015480604084015260038401549182606085015260048501549384608082015260e060076005880154978860a085015260ff600682015416151560c08501520154910152600052600960205261179f60406000205495611f55565b95604051978852602088015260408701526060860152608085015260a084015260c083015260e0820152f35b3461027e57600036600319011261027e576117f160018060a01b03600054163314611ebd565b6005805460ff19169055005b3461027e5760208060031936011261027e5760043561182160ff6005541615611d97565b600a549161183260ff841615611dd8565b600160ff1980941617600a55336000526006815261185a60ff60066040600020015416611e15565b3360005260098152816040600020541061193e5761187c600154831115611e64565b33600052600981526040600020611894838254611eb0565b90556118a282600154611eb0565b6001553360005260068152426007604060002001558160008115611935575b600080809381933390f1156111115760405191825242908201527f92ccf450a286a957af52509bc1c9939d1a6a481783e142e41e2499f0bb66ebc660403392a2600154600254604080519283526020830191909152429082015260008051602061202a833981519152908060608101610a4c565b506108fc6118c1565b6064906040519062461bcd60e51b82526004820152601c60248201527f496e73756666696369656e74206465706f7369742062616c616e6365000000006044820152fd5b3461027e57600036600319011261027e576119a260ff6005541615611d97565b33600052600660205260ff60066040600020015416611a7e576040516119c781611c2d565b6101f481526007602082016000815260408301600081526060840160008152608085016000815260a08601916000835260c08701936001855260e0880195428752336000526006602052604060002098518955516001890155516002880155516003870155516004860155516005850155600684019051151560ff80198354169116179055519101556040514281527fe29d35093005f4d575e1003753426b57a7f64378ba73332eef9c6ccc2b8decd660203392a2005b60405162461bcd60e51b815260206004820152601760248201527f5573657220616c726561647920726567697374657265640000000000000000006044820152606490fd5b3461027e57602036600319011261027e576001600160a01b03611ae4611bad565b1660005260096020526020604060002054604051908152f35b3461027e576020908160031936011261027e576001600160a01b03611b20611bad565b166000526008825260406000208054808352838301908192600052846000209060005b86828210611b99578686611b5982880383611c67565b604051928392818401908285525180915260408401929160005b828110611b8257505050500390f35b835185528695509381019392810192600101611b73565b835485529093019260019283019201611b43565b600435906001600160a01b038216820361027e57565b3461027e57600036600319011261027e5760206040516101f48152f35b9060068210156107c25752565b919082519283825260005b848110611c19575050826000602080949584010152601f8019910116010190565b602081830181015184830182015201611bf8565b610100810190811067ffffffffffffffff8211176106e657604052565b610180810190811067ffffffffffffffff8211176106e657604052565b90601f8019910116810190811067ffffffffffffffff8211176106e657604052565b8054821015611ca15760005260206000200190600090565b634e487b7160e01b600052603260045260246000fd5b90600182811c92168015611ce7575b6020831014611cd157565b634e487b7160e01b600052602260045260246000fd5b91607f1691611cc6565b9060405191826000825492611d0584611cb7565b908184526001948581169081600014611d745750600114611d31575b5050611d2f92500383611c67565b565b9093915060005260209081600020936000915b818310611d5c575050611d2f93508201013880611d21565b85548884018501529485019487945091830191611d44565b915050611d2f94506020925060ff191682840152151560051b8201013880611d21565b15611d9e57565b60405162461bcd60e51b815260206004820152601260248201527110dbdb9d1c9858dd081a5cc81c185d5cd95960721b6044820152606490fd5b15611ddf57565b60405162461bcd60e51b815260206004820152600e60248201526d1499595b9d1c985b9d0818d85b1b60921b6044820152606490fd5b15611e1c57565b60405162461bcd60e51b8152602060048201526013602482015272155cd95c881b9bdd081c9959da5cdd195c9959606a1b6044820152606490fd5b919082018092116107d857565b15611e6b57565b60405162461bcd60e51b815260206004820152601b60248201527f496e73756666696369656e7420706f6f6c206c697175696469747900000000006044820152606490fd5b919082039182116107d857565b15611ec457565b60405162461bcd60e51b815260206004820152602160248201527f4f6e6c79206f776e65722063616e2063616c6c20746869732066756e6374696f6044820152603760f91b6064820152608490fd5b15611f1a57565b60405162461bcd60e51b8152602060048201526013602482015272496e76616c6964206c6f616e2073746174757360681b6044820152606490fd5b6001600160a01b03166000908152600660205260409020546103208110611f835750678ac7230489e8000090565b6102588110611f99575067016345785d8a000090565b6101908110611fae575066b1a2bc2ec5000090565b60c811611fc0576658d15e1762800090565b6611c37937e0800090565b3360005260096020526040600020611fe4348254611e57565b9055611ff234600154611e57565b6001556040513481524260208201527f73a19dd210f1a7f902193214c0ee91dd35ee5b4d920cba8d519eca65a7b488ca60403392a256fec10000f0ea031c3e8c34f842d93756112f8fa737a3140e4921ed932067f42d6aa2646970667358221220577e0ec8d44d38ac41e6f6a4417e2d0f2393f42e1095643eed092ee325f6c0b664736f6c63430008130033",
  "linkReferences": {},
  "deployedLinkReferences": {}
}